:020000040800F2
:1000000000000220C1440008691E00086B1E0008A1
:100010006D1E00086F1E0008711E00080000000021
:10002000000000000000000000000000731E000837
:10003000751E000800000000771E0008791E0008E9
:100040001145000811450008114500081145000838
:100050001145000811450008114500081145000828
:100060001145000811450008114500081145000818
:100070001145000811450008114500081145000808
:10008000811E000811450008911E00081145000856
:1000900011450008114500081145000811450008E8
:1000A00011450008114500081145000811450008D8
:1000B000A11E00081145000811450008114500085F
:1000C00011450008114500081145000811450008B8
:1000D00011450008114500081145000811450008A8
:1000E0001145000811450008114500081145000898
:1000F0001145000811450008114500081145000888
:100100001145000811450008114500081145000877
:100110001145000811450008B11E000811450008EE
:10012000C11E000811450008D11E00081145000835
:100130001145000800000000000000001145000803
:100140001145000811450008114500081145000837
:100150001145000811450008114500081145000827
:100160001145000811450008114500081145000817
:100170001145000811450008114500080000000065
:100180000000000011450008000000000000000011
:1001900011450008000000000000000011450008A3
:1001A00000000000000000000000000011450008F1
:1001B00011450008114500081145000811450008C7
:0401C00011450008DD
:100200000348044B834202D0034B03B118477047A5
:10021000740000207400002000000000054806491A
:100220000B1AD90F01EBA301491002D0034B03B104
:100230001847704774000020740000200000000080
:1002400010B5064C237843B9FFF7DAFF044B13B11E
:100250000448AFF300800123237010BD7400002018
:10026000000000001445000808B5044B1BB1044908
:100270000448AFF30080BDE80840CFE7000000006D
:10028000780000201445000870B50D4E0D4D761B0A
:10029000B61006D0002455F8043B01349847A64216
:1002A000F9D1094E094D761B04F034F9B61006D089
:1002B000002455F8043B01349847A642F9D170BD9B
:1002C000AC450008AC450008B0450008AC45000846
:1002D000844641EA000313F003036DD1403A41D351
:1002E00051F8043B40F8043B51F8043B40F8043B10
:1002F00051F8043B40F8043B51F8043B40F8043B00
:1003000051F8043B40F8043B51F8043B40F8043BEF
:1003100051F8043B40F8043B51F8043B40F8043BDF
:1003200051F8043B40F8043B51F8043B40F8043BCF
:1003300051F8043B40F8043B51F8043B40F8043BBF
:1003400051F8043B40F8043B51F8043B40F8043BAF
:1003500051F8043B40F8043B51F8043B40F8043B9F
:10036000403ABDD2303211D351F8043B40F8043B3F
:1003700051F8043B40F8043B51F8043B40F8043B7F
:1003800051F8043B40F8043B103AEDD20C3205D34F
:1003900051F8043B40F8043B043AF9D2043208D047
:1003A000D2071CBF11F8013B00F8013B01D30B88B9
:1003B00003806046704700BF082A13D38B078DD097
:1003C00010F003038AD0C3F10403D21ADB071CBF69
:1003D00011F8013B00F8013B80D331F8023B20F8D3
:1003E000023B7BE7043AD9D3013A11F8013B00F80C
:1003F000013BF9D20B7803704B7843708B78837094
:1004000060467047830730B548D0541E002A3FD05D
:10041000CAB2034601E0013C3AD303F8012B9D0721
:10042000F9D1032C2DD9CDB245EA05250F2C45EA8B
:10043000054536D9A4F1100222F00F0C03F1200E6D
:10044000E6444FEA121C03F1100242E9045542E966
:10045000025510327245F8D10CF1010214F00C0F64
:1004600003EB021204F00F0C13D0ACF1040323F0E1
:1004700003030433134442F8045B9342FBD10CF0B2
:1004800003042CB1CAB21C4403F8012B9C42FBD1DB
:1004900030BD64461346002CF4D1F9E703461446F8
:1004A000BFE71A46A446E0E70CB410B59CB01EABFB
:1004B0006FF00044CDE906140291084953F8042B6B
:1004C000059102A90193049400F086F9029B002291
:1004D0001A701CB0BDE8104002B070470802FFFF60
:1004E0000EB410B59DB06FF000411FABCDE9060111
:1004F0000491094953F8042B0290084C08680193B1
:1005000002A9059400F068F9029B00221A701DB040
:10051000BDE8104003B07047000000200802FFFF54
:1005200000000000000000000000000000000000CB
:1005300000000000000000000000000000000000BB
:1005400090F800F06DE9024520F007016FF0000C13
:1005500010F0070491F820F040F049804FF00004BB
:100560006FF00700D1E9002391F840F000F1080096
:1005700082FA4CF2A4FA8CF283FA4CF3A2FA8CF3CE
:100580004BBBD1E9022382FA4CF200F10800A4FA35
:100590008CF283FA4CF3A2FA8CF3E3B9D1E9042389
:1005A00082FA4CF200F10800A4FA8CF283FA4CF3C0
:1005B000A2FA8CF37BB9D1E9062301F1200182FA7A
:1005C0004CF200F10800A4FA8CF283FA4CF3A2FA80
:1005D0008CF3002BC6D0002A04BF04301A4612BA8E
:1005E000B2FA82F2FDE8024500EBD2007047D1E991
:1005F000002304F00305C4F100004FEAC50514F020
:10060000040F91F840F00CFA05F562EA05021CBFF0
:1006100063EA050362464FF00004A9E72DE9F047BD
:100620008F689F420C461D46164638D882468889F8
:1006300010F4906F0ED108683D462A46314600F00E
:1006400027FCA2682368D21B2B44A26023600020F1
:10065000BDE8F0874B69096903EB4308236808EBA1
:10066000D878A3EB01096B1C4FEA68084B4443455B
:10067000424684BF98464246430513D5114650462C
:1006800000F0E4FC074608B321694A46FFF720FE64
:10069000A38923F4906343F08003A38107E00868F3
:1006A0001F46CAE7504600F02BFD074650B107EB46
:1006B0000900A8EB09032761C4F81480A360206037
:1006C0002F46BAE72169504600F05EFC0C23CAF8B9
:1006D0000030A38943F040034FF0FF30A381B7E718
:1006E0002DE9F04F936883B09146002B6ED01768C8
:1006F0008D6880460C460868083744E0A38913F4E7
:10070000906F2ED0D4E90415A0EB010A05EB450546
:1007100005EBD5750AEB06006D100130A8422A469C
:1007200084BF05462A465B0537D51146404600F092
:100730008DFC00283BD0524621690190FFF7C8FD8F
:10074000A289019B22F4906242F08002A281A5EB73
:100750000A0203EB0A006561A2602361206035464E
:10076000B2465946524600F093FBA068D9F80810EB
:100770002368451B8E1B03EB0A00A5602060C9F8A7
:1007800008601EB3083757E902B6002EFAD0B5420A
:10079000AA46B3D93546B246E3E7404600F0B0FC7E
:1007A00003460028D3D12169404600F0EDFB0C231D
:1007B000C8F80030A389002243F040034FF0FF3017
:1007C000A381C9E9012203B0BDE8F08F0020C9F878
:1007D000040003B0BDE8F08F2DE9F04F92468A89FE
:1007E00015069DB0884681461C4603D50A69002A35
:1007F00000F0EF80002209929AF800307E4D0394B9
:1008000020228DF8292030228DF82A200126002B65
:1008100072D0544603E014F8013F002B76D0252B0C
:10082000F9D1B4EB0A0B74D12278002A64D00023EA
:100830004FF0FF32CDE90523049307938DF8533031
:100840001A93013404E0049A06FA03F31343049361
:10085000A246052214F8011B284600F0C9FA431BE2
:100860000028F0D1049BD80644BF20228DF85320E5
:1008700019079AF8001044BF2B228DF853202A291B
:1008800054D1039A11680432002903927CDB07914A
:100890009AF801100AF1010A2E2959D0574C032267
:1008A000204600F0A5FA40B1049B001B402404FA46
:1008B00000F0034304930AF1010A1AF8011B50489F
:1008C0008DF82810062200F093FA002862D04D4BD4
:1008D000002B52D003AA00924B4B424604A9484633
:1008E000AFF3008007467A1C06D0099B3B4409936E
:1008F0009AF80030002B8CD1B8F80C305B0654BF4E
:1009000009984FF0FF301DB0BDE8F08FB4EB0A0B33
:10091000F2D05B46524641464846FFF77FFE013023
:10092000EAD0099B22785B4409937EE7A1F130026B
:10093000092AB1D8079B1AF8011F03EB830302EBC6
:100940004303A1F13002092AF5D92E290793A5D135
:100950009AF801102A2927D1039B9AF802101A68E5
:1009600005920433002A0AF102000393B8BF4FF046
:10097000FF338246B8BF059390E7039B073323F00C
:10098000070308330393B0E7494243F0020307919A
:1009900004937DE703AA00921B4B424604A94846F4
:1009A00000F0CAF807469EE7A1F130020023092AA9
:1009B00005930AF1010A3FF671AF1AF8011F03EB24
:1009C000830302EB4303A1F13002092AF5D9059311
:1009D00064E7402100F03AFBC8F80000C8F81000B6
:1009E00018B14022C8F8142004E70C23C9F80030DD
:1009F0004FF0FF3087E700BF6845000870450008EA
:100A000074450008000000001D0600082DE9F84F9D
:100A100092461F460A698B68DDF828909A42B8BF53
:100A20001A46CAF8002091F843300C46064613B126
:100A30000132CAF80020226891065DD5DAF800304C
:100A40000233CAF80030226812F0060F11461ED198
:100A5000E168CB1A002BD8BF114618DD04F1190B41
:100A60004FF0000805E0E568DAF80030ED1A45457A
:100A70000CDD01235A4639463046C847013008F19B
:100A80000108F0D14FF0FF30BDE8F88F216894F8ED
:100A90004330003B18BF01238A060AD5E1185A1CCF
:100AA000302081F84300224494F8451082F8431026
:100AB000023304F1430239463046C8470130E1D0E1
:100AC000236803F00603042B1DD0A3682269934218
:100AD00025DD4FF000089B1A98441A34002501E0E8
:100AE00045451CDA0123224639463046C8470130C5
:100AF00005F10105F4D1C5E712F0060F12D0003B55
:100B000018BF0123D5E7DAF80030E1682269C91A75
:100B1000A368934221EAE178DDDC0029DDDC0020D6
:100B2000BDE8F88FE168DAF80030CB1A002BD8BFA7
:100B3000114693DCABE700BF2DE9F0470C4684B0CB
:100B40009046227E0C990746994604F14300002AFC
:100B500033D0A2F15803DDB2202D67D8202B65D801
:100B6000DFE813F0DE0064006400640064006400E9
:100B700064006400640064006400A3006E0064000C
:100B80006400640064006E0064006400640064003B
:100B900021007F00C00064006400AE0064007F009C
:100BA00064006400E50023681A0640F104810B68C4
:100BB00062691D1D0D601B681A6000238246236157
:100BC000CDF80090434603AA21463846FFF71EFFA2
:100BD000013020D02369524641463846C84701308B
:100BE00019D02368E068039E9B0719D5831B002B4F
:100BF00016DD04F1190A002504E0E068039E831B5A
:100C0000AB420DDD0123524641463846C84701300C
:100C100005F10105F1D14FF0FF3004B0BDE8F087D8
:100C2000B042B8BF304604B0BDE8F087012384F875
:100C30004220236104F1420A002384F84330BFE7D5
:100C400023681A0602D45E0600F1C1800D682A6886
:100C500004350D601546002A6BDBDFF884C10A26D7
:100C600010E023681D0640F19C800B681D1D0D607F
:100C70001D68DFF86CC16F2A0CBF08260A26002306
:100C800084F843306268A260002A7FDB236823F087
:100C900004032360002D5BD1002A79D18246082EFF
:100CA00065D0A0EB0A0020618AE70B680122186872
:100CB00004330B6004F1420A84F842002261BBE76E
:100CC0000B686268181D0860D3F800A00021504628
:100CD00000F08EF8002800F08180A0EB0A00606030
:100CE0002061A9E7236843F0200323607822DFF81E
:100CF000F4C084F845200A68151D0D601D0643D414
:100D0000590641D51588DE0744BF43F02003236010
:100D1000002D44D1236823F0200323601026AEE782
:100D2000582384F84530DFF8B8C02368E3E7236828
:100D3000DCE76268A2602D21002AC5F1000584F875
:100D4000431002DB23F004032360DFF894C00A267B
:100D50008246B5FBF6F306FB13512A461CF8011038
:100D60000AF8011DB2421D46F3D2082E99D123681C
:100D7000D90796D5626823699A4292DC30230AF833
:100D8000013C0AF1FF3A8CE71568BCE7002DDFD182
:100D90009CF8003084F8423004F1420A7FE71026C4
:100DA0006DE713F0400F0B6803F104050D600CBFF5
:100DB0001D681D885DE713F0400F0B68626903F141
:100DC00004050D601B6814BF1A801A60F5E60A68F6
:100DD000B2F9005004320A602A463CE760687FE7B7
:100DE0007C4500089045000800000000000000005D
:100DF00001F0FF01102A2BDB10F0070F08D010F8CC
:100E0000013B013A8B422DD010F0070F42B3F6D1CF
:100E1000F0B441EA012141EA014122F007047FF0E8
:100E200000070023F0E80256083C85EA010586EA3F
:100E3000010685FA47F5A3FA87F586FA47F6A5FA7B
:100E400087F68EB9EED1F0BC01F0FF0102F0070287
:100E500032B110F8013B013A83EA010313B1F8D132
:100E60000020704701387047002D06BF3546033813
:100E7000073815F0010F07D1013015F4807F02BF4C
:100E8000013015F4C03F0130F0BC0138704700BF9D
:100E900088420DD98B1883420AD900EB020CBAB1F3
:100EA000624613F801CD02F801CD9942F9D170479D
:100EB0000F2A0ED8034602F1FF3C4AB10CF1010C97
:100EC000013B8C4411F8012B03F8012F6145F9D146
:100ED000704740EA01039B0750D1A2F1100370B59F
:100EE00001F1200C23F00F0501F1100E00F11004A8
:100EF000AC441B095EF8105C44F8105C5EF80C5CB6
:100F000044F80C5C5EF8085C44F8085C5EF8045C2D
:100F100044F8045C0EF1100EE64504F11004E9D12A
:100F2000013312F00C0F01EB031102F00F0400EB80
:100F3000031327D0043C24F003064FEA940C1E440C
:100F40001C1F8E465EF8045B44F8045FB442F9D17E
:100F50000CF1010402F0030203EB840301EB8401B2
:100F600002F1FF3C4AB10CF1010C013B8C4411F839
:100F7000012B03F8012F6145F9D170BD02F1FF3C4F
:100F800003469BE72246EBE7002958D030B551F8DD
:100F9000043C83B0002BA1F10404B8BFE418019015
:100FA00000F0E8F8284A0198136833B1A3420DD93C
:100FB000216804EB010C63452FD06360146003B01B
:100FC000BDE8304000F0D8B8A34210D81A465B689C
:100FD000002BF9D1116802EB010C644519D02FD315
:100FE0006360546003B0BDE8304000F0C5B81168DC
:100FF00002EB010CA44516D022D8216804EB010CA9
:101000006345EDD11D685B682944C4E90013546051
:10101000D5E7236819441160D1E71D685B6829444E
:10102000C4E90013CAE7246821445418A34211609C
:10103000C5D1D3E900432144C2E90013BFE770479B
:101040000C230360BBE700BF90000020F8B5CD1C67
:1010500025F0030508350C2D38BF0C25002D06465C
:1010600023DBA94221D8254F00F084F83A6822B347
:10107000144603E063682246FBB11C4623685B1BF1
:10108000F8D40B2B15D8636894420CBF3B605360B7
:10109000304600F071F804F10B00231D20F007002A
:1010A000C21A01D01B1AA350F8BD0C2333600020D4
:1010B000F8BD23601C442560EAE77968C9B1294678
:1010C000304600F045F8431C0CD0C41C24F0030447
:1010D000A04205D0211A304600F03AF8013001D084
:1010E0002560D5E70C233046336000F045F800203A
:1010F000F8BD304600F02CF87860E0E79000002062
:10110000F8B51446F9B1CAB106460D4600F036F8F6
:10111000A04202D32F463846F8BD21463046FFF79D
:1011200095FF07460028F6D022462946FFF7D0F85B
:1011300030462946FFF728FF3846F8BD2746FFF717
:1011400023FF3846F8BDBDE8F8401146FFF77EBFE3
:1011500038B5074D0022044608462A6000F018F80A
:10116000431C00D038BD2B68002BFBD0236038BD5A
:1011700098000020704700BF704700BF51F8040C72
:101180000028A0F10400BCBF0B58C018704700BF76
:10119000044A05491368002B08BF0B461844106029
:1011A000184670479C00002050C3002053B94AB92C
:1011B000002908BF00281CBF4FF0FF314FF0FF305F
:1011C00000F074B9ADF1080C6DE904CE00F006F83A
:1011D000DDF804E0DDE9022304B070472DE9F047B3
:1011E000089D04468E46002B4DD18A42944669D90B
:1011F000B2FA82F252B101FA02F3C2F1200120FAEE
:1012000001F10CFA02FC41EA030E94404FEA1C483B
:10121000210CBEFBF8F61FFA8CF708FB16E341EA37
:10122000034306FB07F199420AD91CEB030306F1BD
:10123000FF3080F01F81994240F21C81023E6344DE
:101240005B1AA4B2B3FBF8F008FB103344EA034482
:1012500000FB07F7A7420AD91CEB040400F1FF3397
:1012600080F00A81A74240F207816444023840EAD4
:101270000640E41B00261DB1D4400023C5E900430D
:101280003146BDE8F0878B4209D9002D00F0EF8090
:101290000026C5E9000130463146BDE8F087B3FAC3
:1012A00083F6002E4AD18B4202D3824200F2F980AB
:1012B000841A61EB030301209E46002DE0D0C5E9AE
:1012C000004EDDE702B9FFDEB2FA82F2002A40F0FA
:1012D0009280A1EB0C014FEA1C471FFA8CFE0126FD
:1012E000200CB1FBF7F307FB131140EA01410EFBA1
:1012F00003F0884208D91CEB010103F1FF3802D248
:10130000884200F2CB804346091AA4B2B1FBF7F041
:1013100007FB101144EA01440EFB00FEA64508D964
:101320001CEB040400F1FF3102D2A64500F2BB80A1
:101330000846A4EB0E0440EA03409CE7C6F12007F0
:10134000B34022FA07FC4CEA030C20FA07F401FA36
:1013500006F31C43F9404FEA1C4900FA06F3B1FBBF
:10136000F9F8200C1FFA8CFE09FB181140EA014124
:1013700008FB0EF0884202FA06F20BD91CEB0101C1
:1013800008F1FF3A80F08880884240F28580A8F119
:1013900002086144091AA4B2B1FBF9F009FB10116B
:1013A00044EA014100FB0EFE8E4508D91CEB010109
:1013B00000F1FF346CD28E456AD90238614440EAAC
:1013C0000840A0FB0294A1EB0E01A142C846A6462C
:1013D00056D353D05DB1B3EB080261EB0E0101FAB5
:1013E00007F722FA06F3F1401F43C5E90071002612
:1013F0003146BDE8F087C2F12003D8400CFA02FC68
:1014000021FA03F3914001434FEA1C471FFA8CFE77
:10141000B3FBF7F007FB10360B0C43EA064300FB67
:101420000EF69E4204FA02F408D91CEB030300F105
:10143000FF382FD29E422DD9023863449B1B89B2BC
:10144000B3FBF7F607FB163341EA034106FB0EF345
:101450008B4208D91CEB010106F1FF3816D28B42F2
:1014600014D9023E6144C91A46EA004638E72E46BE
:10147000284605E70646E3E61846F8E64B45A9D2B6
:10148000B9EB020864EB0C0E0138A3E74646EAE725
:10149000204694E74046D1E7D0467BE7023B6144D3
:1014A00032E7304609E76444023842E7704700BF3C
:1014B00030B58BB0002405940694079408940994E1
:1014C0000194224B1A6B42F004021A631A6B02F069
:1014D00004020192019A02941A6B42F080021A638C
:1014E0001A6B02F080020292029A03941A6B42F085
:1014F00001021A631A6B02F001020392039A049428
:101500001A6B42F002021A631B6B03F0020304938E
:10151000049B0F4D22462021284601F081FE4FF406
:10152000005305934FF404130693079405A9094843
:1015300001F08AFD20230593012306930794089464
:1015400005A9284601F080FD0BB030BD00380240EF
:10155000000002400008024010B582B00024009450
:10156000164B1A6B42F400121A631A6B02F4001243
:101570000092009A01941A6B42F480021A631B6B6A
:1015800003F480030193019B22462146102001F0C1
:1015900055F9102001F08AF922462146382001F041
:1015A0004DF9382001F082F9224621463C2001F015
:1015B00045F93C2001F07AF902B010BD0038024034
:1015C00006EE901A521A07EE902AF8EEE77A07EE26
:1015D000100AB8EEC77A87EE876A002211E007EE9C
:1015E000902AF8EEE77A27EE867AF8EEE67A77EE3A
:1015F000877AFCEEE77A17EE901A23F81210013280
:1016000012B28242EBDB704772B6FEE700B585B0DE
:10161000002300930193029303931648164A026035
:101620004FF48032426083600361037680F820309B
:101630004FF08052C2624FF0C0628262C3600123E9
:10164000C36180F83030436100F040FD68B9002389
:10165000009301230193022302936946054801F098
:1016600003F820B905B05DF804FBFFF7CDFFFFF7E5
:10167000CBFF00BFA4A000200020014000B585B032
:10168000002300930193029303931B481B4A0260BB
:101690004FF480324260836001220261037680F859
:1016A0002030C36202F170628262C3600222C261B2
:1016B00080F83030436100F009FDB0B90E2300938B
:1016C000012301930023029369460B4800F0CCFFED
:1016D00068B90F230093022301936946064800F07E
:1016E000C3FF30B905B05DF804FBFFF78DFFFFF7CE
:1016F0008BFFFFF789FF00BFECA000200021014015
:1017000008B50A480A4B03604FF4E13343600023F5
:101710008360C36003610C2242618361C36102F094
:1017200033FE00B908BDFFF76FFF00BFB0A2002075
:101730000044004000B583B00023009301930B48A0
:101740000B4B036001F0D4F858B924230093002216
:1017500001926946054801F0DBF920B903B05DF854
:1017600004FBFFF751FFFFF74FFF00BF34A100203C
:101770000074004000B58FB0264B1A68264BA3FBBF
:101780000213B2F5203F3AD31B0C5A1E00230A93D2
:101790000B930C930D930893099301930293039376
:1017A00004930593069307931C484FF08041016012
:1017B00043608360C2600361836102F073FB00BB1E
:1017C0004FF480530A930AA9144802F04AFCD0B996
:1017D000202308930023099308A9104802F0C0FCB5
:1017E00098B960230193002202920392059201A905
:1017F0000A4802F0BBFB50B90FB05DF804FBFFF7DD
:1018000003FFFFF701FFFFF7FFFEFFF7FDFEFFF706
:10181000FBFE00BF68000020CDCCCCCC68A200202D
:1018200000B595B0002300932D4A116C41F0805112
:101830001164126C02F080520092009A0193294ABE
:10184000116841F440411160126802F44042019273
:10185000019A01220F92109305210FA801F02EFD8D
:10186000D8B9012302934FF4A023039302230893D2
:101870004FF48002099208220A924FF4B4720B923C
:101880000C9307230D9306230E9302A801F0ACFEE0
:1018900028B901F0D5FC20B1FEE7FFF7B5FEFFF750
:1018A000B3FE0F230F9302231093002311934FF4E1
:1018B000A0521292139305210FA801F0FFFC58B912
:1018C0000223029300230593089302A801F08CFEE3
:1018D00020B915B05DF804FBFFF796FEFFF794FE04
:1018E000003802400070004030B583B0754D2B4683
:1018F000754A1288754909884FF48050FFF760FED9
:101900000024734B1C70734B1C704FF480422146B3
:101910007148FEF777FD714B1C8000F011FBFFF75B
:101920007FFFFFF7C5FDFFF717FEFFF76FFEFFF71D
:10193000A5FEFFF7E5FEFFF7FDFEFFF71BFF009496
:101940004FF480532A462146654800F0E3FF08B172
:10195000FFF75AFE4FF400526249634800F08AFCD8
:1019600008B1FFF751FE614802F024F918B9604B45
:1019700000221A7015E0FFF747FE554B00221A703F
:1019800020215C4801F052FC4FF4005255495A485E
:10199000FEF79EFC564B01221A70584B1B78002B09
:1019A00070D14B4B1B78002BE7D14A4B1B783BB9CE
:1019B0004F4B1B78002BF0D000234D4A13701AE0D8
:1019C000444B00221A7020214A4801F02FFC4FF4AA
:1019D00000524B494848FEF77BFC454B01221A70E8
:1019E000DBE7454A32F813003B4951F82320024413
:1019F00041F823200133B3F5805FF2DB374A1388C7
:101A000001339BB21380132BC7D9384802F010F969
:101A10000021334800F0FCFF334800F0F9FC0022BD
:101A2000B2F5805F0ADA2C4951F822303548A0FB24
:101A300003031B0941F822300132F1E70021274B53
:101A400019804FF480422448FEF7DCFC2E4800F059
:101A500069FBA8B900211E4B19701E4B197000912B
:101A60004FF48053174A1E4800F054FF4FF40052C1
:101A70001C491D4800F0FEFB1C4802F09BF88CE757
:101A8000FFF7C2FD1D4B00221A701F4C204600F0CC
:101A9000FBFC0E4D2880204600F0F6FC83B20A4A7B
:101AA00013801A4C2A881A492046FEF719FD204651
:101AB000FEF746FD0A2382B22146164802F093FC47
:101AC0006FE700BFA00000206400002048A30020B2
:101AD0004AA300204BA30020A0600020F4A2002015
:101AE00034A10020A0200020A4A0002068A2002093
:101AF000A0A00020000002404CA30020A1A00020D4
:101B0000A0400020CDCCCCCCECA00020F8A200203E
:101B10002C450008B0A20020034B834200D0704740
:101B2000024B01221A70FAE7A4A000204AA3002069
:101B3000074B984203D0074B984204D07047064B9E
:101B400001221A707047054B01221A70F6E700BF98
:101B5000A4A00020ECA000204BA30020A1A0002006
:101B600000B583B0002100910C4B5A6C42F48042C6
:101B70005A645A6C02F480420092009A01911A6CE5
:101B800042F080521A641B6C03F080530193019B56
:101B9000072000F041FE03B05DF804FB003802406E
:101BA00070B58AB004460023059306930793089303
:101BB00009930368484A934204D0484A934245D067
:101BC0000AB070BD00250195454B5A6C42F48072F5
:101BD0005A645A6C02F480720192019A02951A6B4F
:101BE00042F001021A631B6B03F001030293029B94
:101BF000012305930323069305A93A4801F024FA2B
:101C000039483A4B036045608560C5604FF4806396
:101C100003614FF4006343614FF4005383614FF459
:101C20008073C3610562456201F03AF858B92E4BE2
:101C3000A3639C6300221146122000F0FFFD1220D6
:101C400000F034FEBCE7FFF7DFFCF0E70026039668
:101C5000234B5A6C42F400725A645A6C02F40072BC
:101C60000392039A04961A6B42F004021A631B6BE8
:101C700003F004030493049B30230593032306938A
:101C800005A91B4801F0E0F91A4D1B4B2B606E6053
:101C9000AE60EE604FF480632B614FF480536B6154
:101CA0004FF48043AB614FF48073EB614FF400332A
:101CB0002B626E620123AB62EE622E63284600F057
:101CC000EFFFA563AC6332463146122000F0B6FD4B
:101CD000122000F0EBFD73E70020014000210140DD
:101CE000003802400000024048A100201064024079
:101CF00000080240A8A100204064024030B589B02D
:101D00000023039304930593069307930268274BDC
:101D10009A4201D009B030BD04460025019503F573
:101D2000E2331A6C42F000521A641A6C02F000524C
:101D30000192019A02951A6B42F001021A631B6B21
:101D400003F001030293029B1023039303230493E4
:101D500003A9174801F078F91648174B03604FF0B4
:101D60006063436040238360C5604FF48063036118
:101D70004FF4006343614FF4005383614FF4807369
:101D8000C3610562456200F08BFF58B9094BA3603F
:101D90009C6300221146362000F050FD362000F0F2
:101DA00085FDB7E7FFF730FCF0E700BF00740040A7
:101DB0000000024008A20020886002400368B3F1DE
:101DC000804F00D0704700B583B00021019103F52A
:101DD0000E331A6C42F001021A641B6C03F001030B
:101DE0000193019B0A461C2000F028FD1C2000F0F6
:101DF0005DFD03B05DF804FB00B589B000230393DB
:101E000004930593069307930268154B9A4202D0F8
:101E100009B05DF804FB0021019103F5FA331A6C57
:101E200042F400321A641A6C02F400320192019AF0
:101E300002911A6B42F001021A631B6B03F001035B
:101E40000293029B0C230393022304930323069320
:101E50000723079303A9034801F0F6F8D8E700BF6A
:101E60000044004000000240FEE7FEE7FEE7FEE718
:101E7000FEE770477047704708B500F07BF808BD73
:101E800008B5024800F0F2FF08BD00BF08A200201C
:101E900008B5024800F002FB08BD00BFECA000201E
:101EA00008B5024801F0DDFE08BD00BF68A20020B1
:101EB00008B5024800F0F4FD08BD00BF34A10020C1
:101EC00008B5024800F0D2FF08BD00BF48A10020BD
:101ED00008B5024800F0CAFF08BD00BFA8A1002055
:101EE000034AD2F8883043F47003C2F88830704750
:101EF00000ED00E010B504460E4B18784FF47A73ED
:101F0000B3FBF0F30C4A1068B0FBF3F000F0DCFC1C
:101F100068B90F2C01D901200AE0002221464FF0B8
:101F2000FF3000F08BFC054B1C60002000E001201E
:101F300010BD00BF6C000020680000207000002071
:101F400008B50B4B1A6842F400721A601A6842F422
:101F500080621A601A6842F480721A60032000F0EE
:101F60005BFC0020FFF7C6FFFFF7FAFD002008BD6D
:101F7000003C0240034A1168034B1B780B4413607A
:101F8000704700BF4CC300206C000020014B186854
:101F9000704700BF4CC300204A4B5A6822F44032BD
:101FA0005A605A6841680A435A600268536823F4C9
:101FB0008073536002685368016943EA01235360E8
:101FC0000268536823F04073536002685368816865
:101FD0000B4353600268936823F4006393600268C4
:101FE0009368C1680B439360826A374B9A4257D01B
:101FF0000268936823F07063936002689368816A53
:102000000B4393600268936823F040539360026827
:102010009368C16A0B4393600268936823F00203DC
:10202000936002689368017E43EA4103936090F8ED
:102030002030002B3FD00268536843F400635360A4
:102040000268536823F46043536001684B68426A36
:10205000013A43EA42334B600268D36A23F47003C7
:10206000D3620168CB6AC269013A43EA0253CB6288
:102070000268936823F4007393600268936890F891
:10208000301043EA412393600268936823F480632D
:10209000936002689368416943EA812393607047C3
:1020A0000268936823F0706393600268936823F07A
:1020B00040539360B0E70268536823F400635360B1
:1020C000CAE700BF002301400100000F38B310B57C
:1020D0000446036C43B1236C13F0100F0BD00120A6
:1020E000002384F83C3010BDFFF75AFD00236364E1
:1020F00084F83C30EFE7236C23F4885323F0020389
:1021000043F0020323642046FFF746FF002060648B
:10211000236C23F0030343F001032364E0E7012071
:102120007047000082B00023019390F83C30012BEF
:1021300000F09080012380F83C3003689A6812F028
:10214000010F13D19A6842F001029A60444B1B6858
:10215000444AA2FB03239B0C03EB4303019302E0DD
:10216000019B013B0193019B002BF9D1026893680D
:1021700013F0010F63D0036C23F4E06323F0010339
:1021800043F480730364536813F4806F05D0036CC9
:1021900023F4405343F480530364036C13F4805FCF
:1021A00022D0436C23F006034364002380F83C30C4
:1021B0006FF0220313600268536843F0806343F0BA
:1021C00020035360284B5B6813F01F0F27D103686F
:1021D000264A934211D002F58072934207D0244AD6
:1021E000934214D0002033E000234364DDE702F57E
:1021F0000072526812F01F0FF1D19A6812F0405F1E
:102200002AD19A6842F080429A60002020E002F5CC
:102210008072526812F0100FEFD0002018E00368AF
:10222000124A934201D0002012E09A6812F0405FF7
:1022300014D19A6842F080429A60002008E0036C52
:1022400043F010030364436C43F001034364002034
:1022500002B070470220FBE70020F9E70020F7E713
:102260006800002083DE1B43002301400020014062
:102270000022014010B582B013460022019290F86E
:102280003C20012A00F0AE800446012280F83C2068
:102290000268906810F0010F13D1906840F00100BF
:1022A0009060534A1068534AA2FB0020800C00EB58
:1022B0004000019002E00198013801900198002847
:1022C000F9D12268906810F4807F03D0906820F4E0
:1022D000807090602268906810F0010F77D0206CB9
:1022E00020F4E06020F0010040F480702064526827
:1022F00012F4806F05D0226C22F4405242F48052D6
:102300002264226C12F4805F36D0626C22F00602E6
:102310006264002284F83C20A26B3748D063A26B31
:1023200036481064A26B3648D06422686FF02200F1
:1023300010602068426842F08062426020688268D3
:1023400042F48072826020680A4600F14C01A06B62
:1023500000F00CFD2B4B5B6813F01F0F27D1236897
:10236000294A934211D002F58072934207D0274A3E
:10237000934214D0002033E000226264C9E702F5E2
:102380000072526812F01F0FF1D19A6812F0405F8C
:102390002AD19A6842F080429A60002020E002F53B
:1023A0008072526812F0100FEFD0002018E02368FE
:1023B000154A934201D0002012E09A6812F0405F63
:1023C00014D19A6842F080429A60002008E0236CA1
:1023D00043F010032364636C43F001036364002043
:1023E00002B010BD0220FBE70020F9E70020F7E76C
:1023F0006800002083DE1B43F52500088F240008B9
:10240000DF25000800230140002001400022014098
:1024100090F83C30012B35D010B50446012380F8EC
:102420003C300268936823F00103936003689A6864
:1024300012F0010F21D19A6822F480729A60806BA9
:1024400090F83530DBB2022B0ED0002022685368A2
:1024500023F080635360236C23F4885323F001033B
:1024600043F00103236409E000F0B5FC0028EDD03F
:10247000236C43F040032364E8E70020002384F842
:102480003C3010BD022070470368D86C704708B517
:10249000806BFFF741FB08BD7047704770B504467D
:1024A00003681E685D6816F0020F2FD005F0200249
:1024B00062B3026C12F0100F03D1026C42F400728E
:1024C00002649A6812F0405F19D1227EBAB9DA6AC2
:1024D00012F4700F03D09A6812F4806F0FD15A680B
:1024E00022F020025A60236C23F480732364236C4F
:1024F00013F4805F03D1236C43F00103236420466F
:10250000FFF716FB23686FF012021A6005F08003D4
:1025100016F0040F37D0002B35D0236C13F0100FBA
:1025200003D1236C43F40053236423689A6812F4A4
:10253000401F21D19A6B12F4401F03D09A6812F405
:10254000806F19D15A6812F4806F15D19A6812F011
:10255000405F11D1227E7AB95A6822F080025A6017
:10256000236C23F480532364236C13F4807F03D102
:10257000236C43F001032364204600F04BF92368E9
:102580006FF00C021A6005F0400316F0010F05D041
:1025900023B123681B6813F0010F06D105F0806595
:1025A00016F0200F00D065B970BD236C43F4803362
:1025B00023642046FFF770FF23686FF001021A6062
:1025C000ECE7636C43F00203636423686FF020055B
:1025D0001D602046FFF761FF23681D60E4E708B532
:1025E000806B40230364436C43F004034364FFF7B0
:1025F00054FF08BD08B50346806B026C12F0500F03
:1026000025D1036C43F40073036403689A6812F0E5
:10261000405F19D1027EBAB9DA6A12F4700F03D0A2
:102620009A6812F4806F0FD15A6822F020025A6023
:10263000036C23F480730364036C13F4805F03D191
:10264000036C43F001030364FFF772FA08BD026CE8
:1026500012F0100F04D1826BD26C18469047F5E748
:10266000FFF71BFFF2E7000030B482B000230193B4
:1026700090F83C30012B00F0C080012380F83C3002
:102680000B68092B41D90468E2689BB203EB430352
:102690001E3B4FF0070C0CFA03F322EA0303E3603E
:1026A0000468E2680B8803EB43031E3B8D6805FA60
:1026B00003F31343E3604B68062B3DD80468626B59
:1026C00003EB8303053B4FF01F0C0CFA03F322EAE4
:1026D000030363630468626B4B6803EB8303053B8E
:1026E000B1F800C00CFA03F3134363630268444B70
:1026F0009A4251D00268424B9A425AD0002380F845
:102700003C30184602B030BC7047046822699BB266
:1027100003EB43034FF0070C0CFA03F322EA030325
:102720002361046822690B8803EB43038D6805FA73
:1027300003F313432361BEE70C2B16D805682A6BFD
:1027400003EB8303233B1F2404FA03F322EA03036E
:102750002B6305682A6B4B6803EB8303233B0C88D0
:1027600004FA03F313432B63C0E70568EA6A03EB3B
:102770008303413B1F2404FA03F322EA0303EB62C1
:102780000568EA6A4B6803EB8303413B0C8804FA53
:1027900003F31343EB62A9E70B68122BAAD1194B81
:1027A0005A6822F400025A605A6842F480025A6061
:1027B000A0E70B68144A934201D0112B9ED1114B14
:1027C0005A6822F480025A605A6842F400025A6041
:1027D0000A680D4B9A4291D10C4B1B680C4AA2FB24
:1027E00003239B0C03EB83035B000193019B002BF2
:1027F00084D0019B013B0193F8E7022082E700BFF0
:102800000020014000230140120000106800002059
:1028100083DE1B4370470000074AD36823F4E0635C
:102820001B041B0C000200F4E060034343F0BF6391
:1028300043F40033D360704700ED00E000B5194B5E
:10284000DB68C3F30223C3F1070CBCF1040F28BFFC
:102850004FF0040C03F1040EBEF1060F18D9033B30
:102860004FF0FF3E0EFA0CFC21EA0C0199400EFAE3
:1028700003F322EA0303194300280BDB0901C9B261
:1028800000F1604000F5614080F800135DF804FB42
:102890000023E5E700F00F000901C9B2024B19540B
:1028A000F4E700BF00ED00E014ED00E0002807DBD6
:1028B00000F01F02400901239340024A42F82030F1
:1028C000704700BF00E100E00138B0F1807F0BD21B
:1028D0004FF0E0235861054AF02182F823100020D0
:1028E000986107221A6170470120704700ED00E0EF
:1028F00070B110B50446037933B10223237100206F
:1029000020610123237110BD4371FFF7F7F9F4E74C
:102910000120704770B504460D461146049A40796F
:10292000012866D00120607102202071002D34D171
:10293000A068314EC663A068304E0664A068304E71
:10294000C6642668306840F480503060042A1ED087
:10295000082A1FD0C2B12A46002D3CD12668306813
:1029600040F400503060A06800F000FA002363716A
:10297000002839D12268136805F01005012101FAF9
:1029800005F51D43156070BD22680832E4E7226832
:102990000C32E1E722681032DEE7E068194EC663C8
:1029A000E068194E0664E068184EC6642668306810
:1029B00040F080503060042A07D0082A08D00AB1BD
:1029C0000022C9E722681432C6E722681832C3E73A
:1029D00022681C32C0E72668306840F00050306042
:1029E000E06800F0C3F9C1E7236943F00403236101
:1029F000C9E70220C7E700BF692A00087B2A000850
:102A0000872A00086F2B00087F2B0008892B0008FD
:102A100010B504460368186801F0100E4FF4805C8E
:102A20000CFA0EFC20EA0C001860206803680122F2
:102A300002FA0EF223EA0203036059B9A06800F01B
:102A4000CAF92268136823F4005313600123237129
:102A5000002010BDE06800F0BEF92268136823F082
:102A600000531360F2E7704710B5846B2046FFF700
:102A7000FAFF0123237110BD704708B5806BFFF783
:102A8000FBFF08BD704710B5846B236943F0040356
:102A900023612046FFF7F6FF0123237110BD704725
:102AA00010B5044603681A6812F4005F03D05A6B2D
:102AB00012F4005F09D123681A6812F0005F03D096
:102AC0005A6B12F0005F11D110BD0422027102692D
:102AD00042F0010202614FF400525A630268136827
:102AE00023F480531360FFF7DAFFE4E70422227136
:102AF000226942F0020222614FF000525A632268BA
:102B0000136823F080531360204600F02FF8DBE7B2
:102B10004379012B25D010B54FF0010E80F805E068
:102B2000022303710468236802F0100240F6FE7C61
:102B30000CFA02FC23EA0C0C0B6849680B43934027
:102B400043EA0C03236004682368C02101FA02F2FF
:102B500023EA0202226080F804E000234371184651
:102B600010BD02207047704770477047704710B51E
:102B7000846B2046FFF7F7FF0123237110BD08B5D2
:102B8000806BFFF7F1FF08BD10B5846B236943F03C
:102B9000040323612046FFF7E8FF0123237110BDE2
:102BA00030B405682C6824F480242C6004686360C9
:102BB0008368402B05D0036899600368DA6030BCF5
:102BC000704703689A600368D960F8E710B4036837
:102BD000D9B210390C4AA2FB014212090B4CA25C7B
:102BE000C2655F2909D923F47F7323F003030433FB
:102BF0008365806D5DF8044B704723F47F7323F089
:102C000003038365F5E700BFABAAAAAA60450008E5
:102C1000836A826992B9012B0AD0022B02D00BB1D0
:102C200000207047C36A13F0807F28D100207047CE
:102C3000C36AB3F1C07F24D000207047B2F5005FB3
:102C400009D0022B25D9032B25D1C36A13F0807F2D
:102C500023D100207047032B03D8DFE803F01404CE
:102C6000140A00207047C36A13F0807F0DD1002042
:102C70007047C36AB3F1C07F09D0002070470120BC
:102C800070470120704701207047012070470120E4
:102C900070470120704700207047012070470000F6
:102CA00070B50446FFF772F9002C5BD0054602238D
:102CB00084F83530002384F834302268136823F018
:102CC0000103136023681A6812F0010F0AD0FFF79E
:102CD0005DF9431B052BF5D920236365032084F898
:102CE000350070BD1A68204810406168A2680A4328
:102CF000E1680A4321690A4361690A43A1690A43F9
:102D0000E1690A43216A0A430243616A04291ED029
:102D10001A602668756925F00705636A1D43042B50
:102D200007D1A36A1D43E36A1BB12046FFF770FF7A
:102D300090B975612046FFF749FFE26D3F2393404C
:102D4000836000206065012384F83530C9E7E16ABB
:102D5000206B01430A43DBE740236365012084F8CD
:102D60003500BEE70120BCE73F8010F038B50446CF
:102D7000856D90F8340001282BD0012084F83400B0
:102D800094F83500C0B2012804D0002384F8343010
:102D9000022038BD022084F83500002060652046FE
:102DA000FFF7FEFEE26D3F239340AB60226813689D
:102DB00043F016031360236C23B12268136843F0B9
:102DC000080313602268136843F0010313600020B6
:102DD000DFE70220DDE770B50446866DFFF7D6F821
:102DE00094F83530DBB2022B06D0802363650023D4
:102DF00084F83430012070BD05462268136823F042
:102E0000160313602268536923F080035361236C17
:102E1000E3B12268136823F0080313602268136883
:102E200023F00103136023681B6813F0010F11D016
:102E3000FFF7ACF8431B052BF5D92023636503206E
:102E400084F83500002384F83430D4E7A36C002BD9
:102E5000DFD1E3E7E26D3F239340B360012384F8C1
:102E60003530002084F83400C5E70000F0B583B0A9
:102E7000044600230193724B1D68724BA3FB05357A
:102E8000AD0A876D3E68C26D08239340334210D06F
:102E900003681A6812F0040F0BD01A6822F00402BB
:102EA0001A60C26D08239340BB60436D43F0010379
:102EB0004365E26D01239340334209D02268526991
:102EC00012F0800F04D0BB60636D43F002036365B2
:102ED000E26D04239340334209D02268126812F055
:102EE000020F04D0BB60636D43F004036365E26DC1
:102EF00010239340334224D02268126812F0080F46
:102F00001FD0BB6023681A6812F4802F0DD01B6895
:102F100013F4002F04D1236C9BB12046984710E096
:102F2000A36C73B1204698470BE01A6812F4807FB7
:102F300003D11A6822F008021A60236C0BB12046F4
:102F40009847E26D20239340334255D0226812689F
:102F500012F0100F50D0BB6094F83530DBB2052B67
:102F60000ED023681A6812F4802F33D01B6813F434
:102F7000002F2AD1636C002B3ED0204698473BE0BF
:102F80002268136823F0160313602268536923F044
:102F900080035361236CA3B12268136823F00803F4
:102FA0001360E26D3F239340BB60012384F835300A
:102FB000002384F83430236D002B3FD020469847FF
:102FC0003CE0A36C002BE7D1EBE7E36BA3B1204619
:102FD000984711E01A6812F4807F09D11A6822F02C
:102FE00010021A60012384F83530002384F834304D
:102FF000E36B0BB120469847636DFBB1636D13F033
:10300000010F17D0052384F835302268136823F0A8
:1030100001031360019B01330193AB4204D8236881
:103020001B6813F0010FF5D1012384F8353000231C
:1030300084F83430E36C0BB12046984703B0F0BD00
:1030400068000020B5814E1B00230F2B00F2DE80AC
:1030500070B582B060E085685E000324B44025EA64
:103060000405CC68B4402C438460456825EA020519
:103070004C68C4F300129A402A4342605AE0DC08CC
:10308000083450F8246003F0070295000F22AA408C
:1030900026EA020E0A69AA4042EA0E0240F82420FB
:1030A0005CE0062200E0002202FA0EF22A4302341B
:1030B000574D45F82420574A94686FEA0C0224EAD9
:1030C0000C054E6816F4801F01D04CEA0405514CE3
:1030D000A560E46802EA04054E6816F4001F01D0FA
:1030E0004CEA04054B4CE560646802EA04054E684E
:1030F00016F4003F01D04CEA0405464C6560246894
:1031000022404D6815F4803F01D04CEA0402414C46
:10311000226001330F2B77D801229A400C6804EA11
:10312000020C32EA0404F4D14C6804F00304013CBC
:10313000012C90D94A6802F00302032A09D0C4681E
:103140005D000322AA4024EA02048A68AA402243BE
:10315000C2604A6802F00302022A90D004684FEA73
:10316000430E032202FA0EF224EA02044A6802F035
:10317000030202FA0EF2224302604A6812F4403F50
:10318000C7D000220192244A546C44F48044546411
:10319000526C02F480420192019A9C08A51C1C4AC0
:1031A00052F8255003F003024FEA820E0F2202FA72
:1031B0000EF225EA0205194A90423FF474AF02F577
:1031C0008062904216D002F58062904214D002F5DF
:1031D0008062904212D002F58062904210D002F5D7
:1031E000806290420ED002F5806290423FF459AF67
:1031F000072259E7012257E7022255E7032253E746
:10320000042251E705224FE702B070BD704700BFAE
:1032100000380140003C01400038024000000240FC
:103220000AB181617047090481617047436901EA0D
:10323000030221EA030141EA024181617047000073
:1032400010B582B000230193194B1A6C42F08052E2
:103250001A641B6C03F080530193019B154B0122F0
:103260001A64FEF793FE0446134B5B6813F4803F29
:1032700008D1FEF78BFE001BB0F57A7FF4D903204E
:1032800002B010BD0B4B01225A64FEF77FFE0446CC
:10329000094B5B6813F4003F07D1FEF777FE001B74
:1032A000B0F57A7FF4D90320EAE70020E8E700BF11
:1032B0000038024000000E4200700040002800F07C
:1032C0009B8070B50D4604464F4B1B6803F00F03FF
:1032D0008B4208D2CBB24C4A1370136803F00F0331
:1032E0008B4240F08B80236813F0020F17D013F04D
:1032F000040F04D0454A936843F4E0539360236875
:1033000013F0080F04D0414A936843F4604393607C
:103310003E4A936823F0F003A1680B43936023684F
:1033200013F0010F32D06368012B21D09A1E012ABD
:1033300025D9364A126812F0020F61D033498A68E3
:1033400022F0030213438B60FEF720FE06462F4B4C
:103350009B6803F00C036268B3EB820F16D0FEF794
:1033600015FE801B41F288339842F0D9032042E0D9
:10337000264A126812F4003FE0D101203BE0234AC4
:10338000126812F0007FD9D1012034E01E4B1B6877
:1033900003F00F03AB4207D9EAB21B4B1A701B684C
:1033A00003F00F03AB422DD1236813F0040F06D0B6
:1033B000164A936823F4E053E1680B439360236853
:1033C00013F0080F07D0114A936823F46043216972
:1033D00043EAC103936000F047F80C4B9B68C3F3CA
:1033E00003130B4AD35CD8400A4B18600A4B186889
:1033F000FEF780FD002070BD012070470120FAE734
:103400000120F8E70120F6E7003C024000380240C6
:10341000484500086800002070000020014B186833
:10342000704700BF6800002008B5FFF7F7FF044BA6
:103430009B68C3F38223034AD35CD84008BD00BF16
:10344000003802405845000808B5FFF7E7FF044B75
:103450009B68C3F34233034AD35CD84008BD00BF26
:10346000003802405845000808B55C4B9B6803F0E3
:103470000C03082B07D00C2B5BD0042B01D0584831
:1034800008BD5848FCE7554B5A6802F03F025B689C
:1034900013F4800F2AD0514B5968C1F3881C4FEAAE
:1034A0004C11B1EB0C006EEB0E0E4FEA8E1343EA9B
:1034B00090638101091A63EB0E03DB0043EA517349
:1034C000C90011EB0C0C43F10003590200234FEA31
:1034D0004C2041EADC51FDF769FE404B5B68C3F3C9
:1034E000014301335B00B0FBF3F0C9E73B4B596884
:1034F000C1F3881C4FEA4C11B1EB0C006EEB0E0EC1
:103500004FEA8E1343EA90638101091A63EB0E03BD
:10351000DB0043EA5173C90011EB0C0C43F10003CB
:10352000990200234FEA8C2041EA9C51FDF73EFEB0
:10353000D3E72A4B5A6802F03F025B6813F4800F0E
:1035400028D0264B5968C1F3881C4FEA4C11B1EBC7
:103550000C006EEB0E0E4FEA8E1343EA906381016E
:10356000091A63EB0E03DB0043EA5173C90011EB48
:103570000C0C43F10003590200234FEA4C2041EAAE
:10358000DC51FDF713FE154B5B68C3F30273B0FB10
:10359000F3F075E7114B5968C1F3881C4FEA4C11E1
:1035A000B1EB0C006EEB0E0E4FEA8E1343EA906304
:1035B0008101091A63EB0E03DB0043EA5173C90072
:1035C00011EB0C0C43F10003990200234FEA8C200D
:1035D00041EA9C51FDF7EAFDD5E700BF0038024003
:1035E0000024F40000127A00002800F0018270B577
:1035F00082B00446036813F0010F41D0994B9B68D9
:1036000003F00C03042B32D0964B9B6803F00C03A1
:10361000082B27D0934B9B6803F00C030C2B59D03D
:103620006368B3F5803F5BD0B3F5A02F5ED08D4BC0
:103630001A6822F480321A601A6822F480221A6012
:103640006368002B5CD0FEF7A1FC0546854B1B6828
:1036500013F4003F14D1FEF799FC401B6428F5D900
:103660000320CCE17F4B5B6813F4800FD2D07D4BFD
:103670001B6813F4003F03D06368002B00F0BA818D
:10368000236813F0020F60D0764B9B6813F00C0F89
:103690004AD0744B9B6803F00C03082B3FD0714B4E
:1036A0009B6803F00C030C2B69D0E368002B75D0EA
:1036B0006D4B01221A60FEF769FC0546694B1B68D9
:1036C00013F0020F61D1FEF761FC401B0228F5D90F
:1036D000032094E1634B5B6813F4800FA0D0C6E72E
:1036E000604A136843F480331360A9E75D4B1A689E
:1036F00042F480221A601A6842F480321A609FE70E
:10370000FEF744FC0546574B1B6813F4003FB7D047
:10371000FEF73CFC401B6428F5D903206FE1514BB8
:103720005B6813F4800FBAD14E4B1B6813F0020F85
:1037300003D0E368012B40F05F814A4A136823F00D
:10374000F803216943EAC1031360236813F0080FEB
:1037500049D06369002B33D0434B0122C3F8802E3C
:10376000FEF714FC05463F4B5B6F13F0020F3AD196
:10377000FEF70CFC401B0228F5D903203FE1394B32
:103780005B6813F4800F90D1CEE7364A136823F0BC
:10379000F803216943EAC1031360D6E7324B0022E4
:1037A0001A60FEF7F3FB05462E4B1B6813F0020F61
:1037B000CBD0FEF7EBFB401B0228F5D903201EE11E
:1037C000294B0022C3F8802EFEF7E0FB0546254B6F
:1037D0005B6F13F0020F06D0FEF7D8FB401B0228E8
:1037E000F5D903200BE1236813F0040F76D01D4BAD
:1037F0001B6C13F0805F33D100230193194B1A6CBB
:1038000042F080521A641B6C03F080530193019BB9
:103810000125164B1B6813F4807F29D0A368012B68
:103820003AD0052B3ED00F4B1A6F22F001021A67D7
:103830001A6F22F004021A67A368002B3CD0FEF72F
:10384000A5FB0646074B1B6F13F0020F45D1FEF791
:103850009DFB801B41F288339842F3D90320CEE0D0
:103860000025D6E7003802400000474200700040C3
:103870006B4A136843F480731360FEF787FB0646B8
:10388000674B1B6813F4807FC8D1FEF77FFB801B5A
:103890000228F5D90320B2E0624A136F43F0010316
:1038A0001367C9E75F4B1A6F42F004021A671A6F79
:1038B00042F001021A67BFE7FEF768FB0646594B64
:1038C0001B6F13F0020F08D0FEF760FB801B41F264
:1038D00088339842F3D9032091E0EDB9A369002B16
:1038E00000F08C804F4A926802F00C02082A54D0F3
:1038F000022B17D04C4B00221A66FEF747FB0446FA
:10390000484B1B6813F0007F45D0FEF73FFB001BC0
:103910000228F5D9032072E0424A136C23F0805349
:103920001364DBE7404B00221A66FEF72FFB0546C7
:103930003C4B1B6813F0007F06D0FEF727FB401BB3
:103940000228F5D903205AE0E369226A1343626A28
:1039500043EA8213A26A5208013A43EA0243E26A46
:1039600043EA0263226B43EA02732E4A53602E4BF2
:1039700001221A66FEF70AFB04462A4B1B6813F065
:10398000007F06D1FEF702FB001B0228F5D90320B9
:1039900035E0002033E0002031E0012B31D0214B15
:1039A0005B6803F48001E26991422CD103F03F028D
:1039B000216A8A4229D1616A47F6C0721A40B2EB85
:1039C000811F24D103F44031A26A5208013AB1EBBD
:1039D000024F1ED103F07062E16AB2EB016F1AD19F
:1039E00003F0E043226BB3EB027F16D1002006E028
:1039F00001207047012002E0012000E0002002B019
:103A000070BD0120FBE70120F9E70120F7E7012065
:103A1000F5E70120F3E70120F1E70120EFE700BF20
:103A200000700040003802400000474230B4036A92
:103A300023F001030362036A4268846924F073047B
:103A40000D682C4323F0020C8B6843EA0C03104DE5
:103A5000A84203D005F58065A84205D123F00803EC
:103A6000CD682B4323F00403094DA84203D005F58C
:103A70008065A84205D122F440724D692A438D69C0
:103A80002A43426084614A684263036230BC7047E3
:103A90000000014030B4036A23F480730362036AB8
:103AA0004268C46924F0730C0C6844EA0C0523F4E2
:103AB00000738C6843EA0423114CA04203D004F540
:103AC0008064A04206D123F40063CC6843EA042357
:103AD00023F480630A4CA04203D004F58064A04222
:103AE00007D122F440524C6942EA04128C6942EA3E
:103AF00004124260C5614A68C263036230BC704709
:103B00000000014030B4036A23F480530362036A67
:103B10004468C26922F4E6420D6842EA052223F4B1
:103B200000538D6843EA0533094DA84203D005F5DB
:103B30008065A84204D124F480444D6944EA851488
:103B40004460C2614A680264036230BC704700BFCF
:103B50000000014010B4036A046A24F00104046206
:103B6000846924F0F00C4CEA021223F00A030B43A0
:103B7000826103625DF8044B704710B4046A24F05C
:103B8000100404628469036A24F4704C4CEA023223
:103B900023F0A00343EA0113826103625DF8044B42
:103BA0007047836823F070030B4343F0070383607F
:103BB0007047000090F83D30DBB2012B32D1022378
:103BC00080F83D300368194A934220D0B3F1804F0A
:103BD0001DD0A2F57C42934219D002F58062934237
:103BE00015D002F58062934211D002F578429342DB
:103BF0000DD002F57052934209D0A2F5943293424F
:103C000005D01A6842F001021A60002070479A68D5
:103C100002F00702062A07D01A6842F001021A6071
:103C200000207047012070470020704700000140CD
:103C30000368196A41F21112114208D1196A40F25F
:103C40004442114203D11A6822F001021A60012392
:103C500080F83D30002070477047704770477047CC
:103C6000704710B5044603681A6912F0020F11D0AC
:103C7000DA6812F0020F0DD06FF002021A61012310
:103C8000037703689B6913F0030F70D0FFF7E6FF1B
:103C90000023237723681A6912F0040F12D0DA6820
:103CA00012F0040F0ED06FF004021A610223237782
:103CB00023689B6913F4407F5FD02046FFF7CEFF57
:103CC0000023237723681A6912F0080F12D0DA68EC
:103CD00012F0080F0ED06FF008021A610423237748
:103CE0002368DB6913F0030F4ED02046FFF7B6FFC1
:103CF0000023237723681A6912F0100F12D0DA68B4
:103D000012F0100F0ED06FF010021A610823237703
:103D10002368DB6913F4407F3DD02046FFF79EFF08
:103D20000023237723681A6912F0010F03D0DA68A1
:103D300012F0010F36D123681A6912F0800F03D0F8
:103D4000DA6812F0800F34D123681A6912F0400F3C
:103D500003D0DA6812F0400F32D123681A6912F0EA
:103D6000200F03D0DA6812F0200F30D110BDFFF71A
:103D700074FF2046FFF773FF8AE72046FFF76DFFC9
:103D80002046FFF76CFF9BE72046FFF766FF2046C3
:103D9000FFF765FFACE72046FFF75FFF2046FFF720
:103DA0005EFFBDE76FF001021A612046FFF754FF86
:103DB000C1E76FF080021A61204600F018FAC3E7ED
:103DC0006FF040021A612046FFF74AFFC5E76FF027
:103DD00020021A61204600F009FAC7E70368304A5A
:103DE000904212D0B0F1804F0FD0A2F57C429042A9
:103DF0000BD002F58062904207D002F580629042BB
:103E000003D002F57842904203D123F070034A6850
:103E10001343234A90422AD0B0F1804F27D0A2F515
:103E20007C42904223D002F5806290421FD002F57E
:103E3000806290421BD002F57842904217D002F582
:103E40007052904213D002F5806290420FD002F57A
:103E5000806290420BD0A2F59832904207D002F5D2
:103E60008062904203D002F58062904203D123F435
:103E70004073CA68134323F080034A691343036005
:103E80008B68C3620B688362054B984203D003F5CD
:103E90008063984201D10B6903630123436170473A
:103EA0000000014040B310B5044690F83D30F3B136
:103EB000022384F83D30214651F8040BFFF78EFFB2
:103EC000012384F8463084F83E3084F83F3084F88B
:103ED000403084F8413084F8423084F8433084F82C
:103EE000443084F8453084F83D30002010BD80F81F
:103EF0003C30FDF763FFDBE70120704730B4036A15
:103F000023F010030362036A4468826922F4E642E4
:103F10000D6842EA052223F020038D6843EA051369
:103F2000114DA84203D005F58065A84206D123F0C3
:103F30008003CD6843EA051323F040030A4DA842ED
:103F400003D005F58065A84207D124F440644D698B
:103F500044EA85048D6944EA8504446082614A68C4
:103F60008263036230BC70470000014038B590F8AE
:103F70003C30012B66D004460D46012380F83C30CE
:103F80000C2A5AD8DFE802F0075959591B595959D8
:103F90003059595944000068FFF748FD2268936979
:103FA00043F0080393612268936923F0040393614B
:103FB0002268936929690B43936100203EE0006801
:103FC000FFF79CFF2268936943F4006393612268C2
:103FD000936923F48063936122689369296943EAB2
:103FE00001239361002029E00068FFF753FD226858
:103FF000D36943F00803D3612268D36923F0040333
:10400000D3612268D36929690B43D361002015E08D
:104010000068FFF777FD2268D36943F40063D3613A
:104020002268D36923F48063D3612268D369296944
:1040300043EA0123D361002000E00120002384F83B
:104040003C3038BD0220FCE710B4846824F47F4C77
:1040500042EA03220A4342EA0C0282605DF8044B02
:10406000704790F83C30012B78D010B504460123FE
:1040700080F83C30022380F83D300268936823F4D6
:104080007F4323F0770393600B68602B4CD029D8D3
:10409000402B54D00CD9502B22D1CA6849680068F3
:1040A000FFF758FD50212068FFF77BFD002005E059
:1040B000202B0DD009D9302B0AD00120012384F800
:1040C0003D30002384F83C3010BD0BB1102B05D1DE
:1040D00019462068FFF765FD0020EFE70120EDE7B6
:1040E0000120EBE7B3F5805F34D0B3F5005F0CD16E
:1040F000CB684A6889680068FFF7A6FF2268936862
:1041000043F4804393600020D8E7702B24D1CB6820
:104110004A6889680068FFF797FF2268936843F050
:10412000770393600020C9E7CA6849680068FFF711
:1041300024FD60212068FFF734FD0020BEE7CA6837
:1041400049680068FFF706FD40212068FFF729FD58
:104150000020B3E70020B1E70120AFE7022070475D
:1041600090F83C30012B3DD010B4012380F83C3056
:10417000022380F83D3003685A689C6822F0700C76
:104180000A6842EA0C025A600368174A93421AD03E
:10419000B3F1804F17D0A2F57C42934213D002F5C1
:1041A000806293420FD002F5806293420BD002F5F9
:1041B0007842934207D002F57052934203D0A2F5A1
:1041C0009432934204D124F080044A6814439C60E2
:1041D000012380F83D30002380F83C3018465DF81C
:1041E000044B704702207047000001407047704741
:1041F00038B504460268136923F44053C1680B4381
:10420000136183680269134342691343C2691A4305
:104210000168CB6823F4164323F00C031343CB60EF
:104220000268536923F4407381690B435361036847
:10423000314A934206D002F58062934202D0FFF7E2
:10424000F3F801E0FFF700F9E369B3F5004F29D077
:104250000021031849411B1841F10001C90041EA3E
:104260005371DB00181863684FEA83024FEA9373B7
:1042700041F10001FCF79AFF204DA5FB00325109E6
:10428000642303FB11031B013233A5FB03235B09EA
:1042900003F0F00202EB011203F00F032168134454
:1042A0008B6038BD0023021843EB0301121841F163
:1042B0000001C90041EA5271D200101841F1000119
:1042C000626892185B41FCF771FF0C4DA5FB003250
:1042D0005109642303FB1103DB003233A5FB0323E5
:1042E0005B095A0002F4F87202EB011203F00703B3
:1042F000216813448B60D4E7001001401F85EB5107
:104300002DE9F84305460F4616469946DDF820800C
:104310002C68246837EA04030CBF4FF0010C4FF0FF
:10432000000CB4452DD1B8F1FF3FF1D0B8F1000F2A
:1043300005D0FDF72BFEA0EB09004045E8D92A681F
:1043400002F10C0353E8003F23F4D0730C3242E82F
:1043500000310029F3D12A6802F1140353E8003F29
:1043600023F00103143242E800310029F3D1202365
:1043700085F83D3085F83E30002385F83C30032039
:1043800000E00020BDE8F88358B310B5044690F86B
:104390003D300BB3242384F83D302268D36823F4E6
:1043A0000053D3602046FFF723FF2268136923F4EC
:1043B000904313612268536923F02A0353612268F2
:1043C000D36843F40053D36000202064202384F892
:1043D0003D3084F83E3010BD80F83C30FDF70CFDD8
:1043E000D8E7012070472DE9F04182B01E4690F8D1
:1043F0003D30DBB2202B54D104460D4690460029B7
:1044000053D0002A53D090F83C30012B51D00123D7
:1044100080F83C3000230364212380F83D30FDF711
:10442000B5FD0746A4F82480A4F82680A368B3F558
:10443000805F05D04FF00008002384F83C3012E084
:10444000236913B14FF00008F6E7A8460025F3E70B
:1044500038F8023B2268C3F308035360E28C92B23F
:10446000013A92B2E284E38C9BB273B100963B4670
:10447000002280212046FFF743FFE0B9002DE7D05E
:1044800015F8012B23685A60E8E700963B460022A6
:1044900040212046FFF734FF78B9202384F83D30CF
:1044A00000E0022002B0BDE8F0810120FAE701201F
:1044B000F8E70220F6E70320F4E70320F2E7000024
:1044C000DFF834D00D480E490E4A002302E0D458DC
:1044D000C4500433C4188C42F9D30B4A0B4C00234C
:1044E00001E013600432A242FBD3FDF7F9FCFBF7B5
:1044F000CBFEFDF7F9F97047000002200000002014
:1045000074000020B44500087400002050C300204F
:10451000FEE70000F8B500BFF8BC08BC9E46704737
:0C452000F8B500BFF8BC08BC9E46704710
:10452C0052616D70204D696E3D25642052616D7035
:10453C00204D61783D25640A0D000000000000004C
:10454C000000000001020304060708090000000037
:10455C00010203040006101600061016232D302B42
:10456C0020000000686C4C006566674546470000FB
:10457C00303132333435363738394142434445468D
:10458C00000000003031323334353637383961624F
:08459C00636465660000000085
:0845A40038CCFF7F010000008C
:0445AC006902000898
:0445B00041020008BC
:1045B40004000020000000000000000000000000D3
:1045C40000000000000000000000000000000000E7
:1045D40000000000000000000000000000000000D7
:1045E40000000000000000000000000000000000C7
:1045F40000000000000000000000000000000000B7
:1046040000000000000000000000000000000000A6
:1046140000000000FF0F00000024F400010000006F
:044624001000000082
:04000005080044C1EA
:00000001FF
