:020000040800F2
:1000000000000220212F0008610C0008630C00088A
:10001000650C0008670C0008690C0008000000006F
:100020000000000000000000000000006B0C000851
:100030006D0C0008000000006F0C0008710C000837
:10004000712F0008712F0008712F0008712F000810
:10005000712F0008712F0008712F0008712F000800
:10006000712F0008712F0008712F0008712F0008F0
:10007000712F0008712F0008712F0008712F0008E0
:10008000790C0008712F0008890C0008712F0008F6
:10009000712F0008712F0008712F0008712F0008C0
:1000A000712F0008712F0008712F0008712F0008B0
:1000B000990C0008712F0008712F0008712F00089B
:1000C000712F0008712F0008712F0008712F000890
:1000D000712F0008712F0008712F0008712F000880
:1000E000712F0008712F0008712F0008712F000870
:1000F000712F0008712F0008712F0008712F000860
:10010000712F0008712F0008712F0008712F00084F
:10011000712F0008712F0008A90C0008712F00082A
:10012000B90C0008712F0008712F0008712F00080A
:10013000712F00080000000000000000712F00086F
:10014000712F0008712F0008712F0008712F00080F
:10015000712F0008712F0008712F0008712F0008FF
:10016000712F0008712F0008712F0008712F0008EF
:10017000712F0008712F0008712F00080000000087
:1001800000000000712F00080000000000000000C7
:10019000712F00080000000000000000712F00080F
:1001A000000000000000000000000000712F0008A7
:1001B000712F0008712F0008712F0008712F00089F
:0401C000712F000893
:1001C4000348044B834202D0034B03B118477047E2
:1001D4000C0000200C000020000000000548064927
:1001E4000B1AD90F01EBA301491002D0034B03B141
:1001F400184770470C0000200C000020000000008D
:1002040010B5064C237843B9FFF7DAFF044B13B15A
:100214000448AFF300800123237010BD0C000020BC
:1002240000000000742F000808B5044B1BB10449FA
:100234000448AFF30080BDE80840CFE700000000A9
:1002440010000020742F000870B50D4E0D4D761B64
:10025400B61006D0002455F8043B01349847A64252
:10026400F9D1094E094D761B02F082FEB61006D074
:10027400002455F8043B01349847A642F9D170BDD7
:10028400B42F0008B42F0008B82F0008B42F0008BA
:10029400830730B548D0541E002A3FD0CAB2034663
:1002A40001E0013C3AD303F8012B9D07F9D1032C5B
:1002B4002DD9CDB245EA05250F2C45EA054536D999
:1002C400A4F1100222F00F0C03F1200EE6444FEAD1
:1002D400121C03F1100242E9045542E9025510329E
:1002E4007245F8D10CF1010214F00C0F03EB021269
:1002F40004F00F0C13D0ACF1040323F00303043314
:10030400134442F8045B9342FBD10CF003042CB178
:10031400CAB21C4403F8012B9C42FBD130BD644695
:100324001346002CF4D1F9E703461446BFE71A46F6
:10033400A446E0E753B94AB9002908BF00281CBF06
:100344004FF0FF314FF0FF3000F074B9ADF1080CFD
:100354006DE904CE00F006F8DDF804E0DDE90223DF
:1003640004B070472DE9F047089D04468E46002BE3
:100374004DD18A42944669D9B2FA82F252B101FA55
:1003840002F3C2F1200120FA01F10CFA02FC41EA65
:10039400030E94404FEA1C48210CBEFBF8F61FFAEA
:1003A4008CF708FB16E341EA034306FB07F1994285
:1003B4000AD91CEB030306F1FF3080F01F81994238
:1003C40040F21C81023E63445B1AA4B2B3FBF8F012
:1003D40008FB103344EA034400FB07F7A7420AD999
:1003E4001CEB040400F1FF3380F00A81A74240F2C1
:1003F40007816444023840EA0640E41B00261DB12C
:10040400D4400023C5E900433146BDE8F0878B4260
:1004140009D9002D00F0EF800026C5E9000130461F
:100424003146BDE8F087B3FA83F6002E4AD18B42F9
:1004340002D3824200F2F980841A61EB03030120A3
:100444009E46002DE0D0C5E9004EDDE702B9FFDE8F
:10045400B2FA82F2002A40F09280A1EB0C014FEA3A
:100464001C471FFA8CFE0126200CB1FBF7F307FB97
:10047400131140EA01410EFB03F0884208D91CEB3A
:10048400010103F1FF3802D2884200F2CB804346D7
:10049400091AA4B2B1FBF7F007FB101144EA0144B6
:1004A4000EFB00FEA64508D91CEB040400F1FF3145
:1004B40002D2A64500F2BB800846A4EB0E0440EA33
:1004C40003409CE7C6F12007B34022FA07FC4CEA3C
:1004D400030C20FA07F401FA06F31C43F9404FEA2F
:1004E4001C4900FA06F3B1FBF9F8200C1FFA8CFE44
:1004F40009FB181140EA014108FB0EF0884202FA98
:1005040006F20BD91CEB010108F1FF3A80F0888058
:10051400884240F28580A8F102086144091AA4B215
:10052400B1FBF9F009FB101144EA014100FB0EFE96
:100534008E4508D91CEB010100F1FF346CD28E45C5
:100544006AD90238614440EA0840A0FB0294A1EB56
:100554000E01A142C846A64656D353D05DB1B3EBB3
:10056400080261EB0E0101FA07F722FA06F3F140E3
:100574001F43C5E9007100263146BDE8F087C2F18A
:100584002003D8400CFA02FC21FA03F39140014302
:100594004FEA1C471FFA8CFEB3FBF7F007FB10363B
:1005A4000B0C43EA064300FB0EF69E4204FA02F4E7
:1005B40008D91CEB030300F1FF382FD29E422DD93A
:1005C400023863449B1B89B2B3FBF7F607FB16336F
:1005D40041EA034106FB0EF38B4208D91CEB0101EF
:1005E40006F1FF3816D28B4214D9023E6144C91A6F
:1005F40046EA004638E72E46284605E70646E3E67F
:100604001846F8E64B45A9D2B9EB020864EB0C0E88
:100614000138A3E74646EAE7204694E74046D1E797
:10062400D0467BE7023B614432E7304609E7644445
:10063400023842E7704700BF30B58BB00024059400
:1006440006940794089409940194224B1A6B42F07F
:1006540004021A631A6B02F004020192019A0294D2
:100664001A6B42F080021A631A6B02F08002029243
:10067400029A03941A6B42F001021A631A6B02F095
:1006840001020392039A04941A6B42F002021A6361
:100694001B6B03F002030493049B0F4D224620219D
:1006A400284601F05BFB4FF4005305934FF4041309
:1006B4000693079405A9094801F064FA20230593D9
:1006C400012306930794089405A9284601F05AFAD1
:1006D4000BB030BD00380240000002400008024068
:1006E40010B582B000240094124B1A6B42F48002BD
:1006F4001A631A6B02F480020092009A01941A6B36
:1007040042F400121A631B6B03F400130193019B60
:1007140022462146102000F0A3FE102000F0D8FE4F
:1007240022462146382000F09BFE382000F0D0FEFF
:1007340002B010BD0038024072B6FEE700B585B0C5
:10074400002300930193029303931548154A026012
:100754004FF48032426083600361037680F8203076
:100764004FF08052C2624FF0C0628262C3600123C4
:10077400C36180F83030436100F0A0FB60B900230E
:1007840000930122019202936946054800F07EFD20
:1007940020B905B05DF804FBFFF7CEFFFFF7CCFFEF
:1007A40028A000200020014008B50A480A4B036035
:1007B4004FF4E133436000238360C36003610C2280
:1007C40042618361C36102F079FB00B908BDFFF7A0
:1007D400B3FF00BF8CA100200044004000B583B0EB
:1007E4000023009301930B480B4B036000F092FE2F
:1007F40058B924230093002201926946054800F069
:100804006EFF20B903B05DF804FBFFF795FFFFF717
:1008140093FF00BF70A000200074004000B58FB0AB
:10082400224B1A68120B013A00230A930B930C9380
:100834000D930893099301930293039304930593EF
:10084400069307931A484FF0804101604360836028
:10085400C2600361836102F071F8F0B94FF4805310
:100864000A930AA9124802F048F9C0B92023089350
:100874000023099308A90E4802F050FA88B96023AE
:100884000193002202920392059201A9084802F002
:10089400B9F840B90FB05DF804FBFFF74DFFFFF75F
:1008A4004BFFFFF749FFFFF747FF00BF00000020A1
:1008B40044A1002000B595B03422002107A8FFF719
:1008C400E7FC002302930393049305930693009398
:1008D4001F4A116C41F080511164126C02F0805275
:1008E4000092009A01931B490A6822F4404242F4A0
:1008F40080420A600A6802F440420192019A02228C
:10090400079201210A9110210B910D920E930F91E0
:100914004FF4A8731093042311931292139207A80F
:1009240001F0C2FB80B90F2302930221039100233B
:1009340004934FF480520592069302A801F01EFA24
:1009440020B915B05DF804FBFFF7F6FEFFF7F4FEDF
:10095400003802400070004000B583B000230AE074
:100964001F4A40F6FF7122F8131003F500610020BE
:1009740022F811000133B3F5006FF1DB00F0D8F970
:10098400FFF798FFFFF758FEFFF7AAFEFFF7D6FE22
:10099400FFF70AFFFFF722FFFFF740FF0021009156
:1009A4004FF480530E4A0F4800F0C6FD08B1FFF71C
:1009B400C3FE4FF400520C490C4800F0ABFA08B1E6
:1009C400FFF7BAFE0A4801F055FE08B1FFF7B4FE7E
:1009D4000021074802F020F900B9FEE7FFF7ACFE5A
:1009E4002800002070A000202820002028A000203B
:1009F40044A1002000B583B0002100910C4B5A6C37
:100A040042F480425A645A6C02F480420092009A82
:100A140001911A6C42F080521A641B6C03F08053EB
:100A24000193019B072000F009FD03B05DF804FB6E
:100A34000038024030B589B0002303930493059332
:100A440006930793026803F1804303F590339A42B7
:100A540001D009B030BD04460025019503F58C335F
:100A64005A6C42F480725A645A6C02F48072019295
:100A7400019A02951A6B42F001021A631B6B03F090
:100A840001030293029B012303930323049303A909
:100A9400144801F077F81448144B036045608560EE
:100AA400C5604FF4806303614FF4006343614FF406
:100AB400005383614FF48073C3610562456200F0A3
:100AC400D7FE58B9084BA3639C6300221146122039
:100AD40000F0C6FC122000F0FBFCBAE7FFF72CFE86
:100AE400F0E700BF0000024084A000201064024030
:100AF40030B589B0002303930493059306930793B9
:100B04000268274B9A4201D009B030BD0446002543
:100B1400019503F5E2331A6C42F000521A641A6C20
:100B240002F000520192019A02951A6B42F00102FE
:100B34001A631B6B03F001030293029B10230393BC
:100B44000323049303A9174801F01CF81648174B14
:100B540003604FF06063436040238360C5604FF4DB
:100B6400806303614FF4006343614FF40053836176
:100B74004FF48073C3610562456200F079FE58B991
:100B8400094BA3609C6300221146362000F068FCE8
:100B9400362000F09DFCB7E7FFF7CEFDF0E700BF7D
:100BA4000074004000000240E4A00020886002407D
:100BB4000368B3F1804F00D0704700B583B00021C3
:100BC400019103F50E331A6C42F001021A641B6C96
:100BD40003F001030193019B0A461C2000F040FC32
:100BE4001C2000F075FC03B05DF804FB00B589B06F
:100BF4000023039304930593069307930268154B0C
:100C04009A4202D009B05DF804FB0021019103F57A
:100C1400FA331A6C42F400321A641A6C02F4003289
:100C24000192019A02911A6B42F001021A631B6B42
:100C340003F001030293029B0C2303930223049306
:100C4400032306930723079303A9034800F09AFF9D
:100C5400D8E700BF0044004000000240FEE7FEE782
:100C6400FEE7FEE7FEE770477047704708B500F0FF
:100C740079F808BD08B5024800F096FE08BD00BF2B
:100C8400E4A0002008B5024800F01BFA08BD00BF2C
:100C940028A0002008B5024801F02FFD08BD00BFC0
:100CA40044A1002008B5024800F0E1FC08BD00BFE3
:100CB40070A0002008B52021034801F055F803482E
:100CC40000F072FE08BD00BF0000024084A00020B6
:100CD400034AD2F8883043F47003C2F8883070476E
:100CE40000ED00E010B504460E4B18784FF47A730B
:100CF400B3FBF0F30C4A1068B0FBF3F000F0F6FB22
:100D040068B90F2C01D901200AE0002221464FF0D6
:100D1400FF3000F0A5FB054B1C60002000E0012023
:100D240010BD00BF040000200000002008000020C7
:100D340008B50B4B1A6842F400721A601A6842F440
:100D440080621A601A6842F480721A60032000F00C
:100D540075FB0020FFF7C6FFFFF74CFE002008BD1F
:100D6400003C0240034A1168034B1B780B44136098
:100D7400704700BFD0A1002004000020014B186878
:100D8400704700BFD0A100204A4B5A6822F4403279
:100D94005A605A6841680A435A600268536823F4E7
:100DA4008073536002685368016943EA0123536006
:100DB4000268536823F04073536002685368816883
:100DC4000B4353600268936823F4006393600268E2
:100DD4009368C1680B439360826A374B9A4257D039
:100DE4000268936823F07063936002689368816A71
:100DF4000B4393600268936823F040539360026846
:100E04009368C16A0B4393600268936823F00203FA
:100E1400936002689368017E43EA4103936090F80B
:100E24002030002B3FD00268536843F400635360C2
:100E34000268536823F46043536001684B68426A54
:100E4400013A43EA42334B600268D36A23F47003E5
:100E5400D3620168CB6AC269013A43EA0253CB62A6
:100E64000268936823F4007393600268936890F8AF
:100E7400301043EA412393600268936823F480634B
:100E8400936002689368416943EA812393607047E1
:100E94000268936823F0706393600268936823F098
:100EA40040539360B0E70268536823F400635360CF
:100EB400CAE700BF002301400100000F38B310B59A
:100EC4000446036C43B1236C13F0100F0BD00120C4
:100ED400002384F83C3010BDFFF7ACFD00236364AD
:100EE40084F83C30EFE7236C23F4885323F00203A7
:100EF40043F0020323642046FFF746FF00206064AA
:100F0400236C23F0030343F001032364E0E701208F
:100F14007047000010B582B013460022019290F889
:100F24003C20012A00F0AE800446012280F83C20D7
:100F34000268906810F0010F13D1906840F001002E
:100F44009060534A1068534AA2FB0020800C00EBC7
:100F54004000019002E001980138019001980028B6
:100F6400F9D12268906810F4807F03D0906820F44F
:100F7400807090602268906810F0010F77D0206C28
:100F840020F4E06020F0010040F480702064526896
:100F940012F4806F05D0226C22F4405242F4805245
:100FA4002264226C12F4805F36D0626C22F0060256
:100FB4006264002284F83C20A26B3748D063A26BA1
:100FC40036481064A26B3648D06422686FF0220061
:100FD40010602068426842F0806242602068826843
:100FE40042F48072826020680A4600F14C01A06BD2
:100FF40000F0A4FC2B4B5B6813F01F0F27D1236870
:10100400294A934211D002F58072934207D0274AAD
:10101400934214D0002033E000226264C9E702F551
:101024000072526812F01F0FF1D19A6812F0405FFB
:101034002AD19A6842F080429A60002020E002F5AA
:101044008072526812F0100FEFD0002018E023686D
:10105400154A934201D0002012E09A6812F0405FD2
:1010640014D19A6842F080429A60002008E0236C10
:1010740043F010032364636C43F0010363640020B2
:1010840002B010BD0220FBE70020F9E70020F7E7DB
:101094000000002083DE1B431F120008B910000863
:1010A40009120008002301400020014000220140F1
:1010B4007047704708B5806BFFF7FBFF08BD7047AA
:1010C400704770B5044603681E685D6816F0020F29
:1010D4002FD005F0200262B3026C12F0100F03D17E
:1010E400026C42F4007202649A6812F0405F19D1F3
:1010F400227EBAB9DA6A12F4700F03D09A6812F435
:10110400806F0FD15A6822F020025A60236C23F4B6
:1011140080732364236C13F4805F03D1236C43F046
:10112400010323642046FFF7C3FF23686FF0120214
:101134001A6005F0800316F0040F37D0002B35D069
:10114400236C13F0100F03D1236C43F40053236476
:1011540023689A6812F4401F21D19A6B12F4401F3D
:1011640003D09A6812F4806F19D15A6812F4806F10
:1011740015D19A6812F0405F11D1227E7AB95A686B
:1011840022F080025A60236C23F480532364236C7E
:1011940013F4807F03D1236C43F0010323642046BE
:1011A40000F04AF923686FF00C021A6005F040035E
:1011B40016F0010F05D023B123681B6813F0010F4B
:1011C40006D105F0806516F0200F00D065B970BD1A
:1011D400236C43F4803323642046FFF770FF2368B5
:1011E4006FF001021A60ECE7636C43F0020363647E
:1011F40023686FF020051D602046FFF761FF236818
:101204001D60E4E708B5806B40230364436C43F03E
:1012140004034364FFF754FF08BD08B50346806B1D
:10122400026C12F0500F25D1036C43F40073036475
:1012340003689A6812F0405F19D1027EBAB9DA6A7B
:1012440012F4700F03D09A6812F4806F0FD15A68A9
:1012540022F020025A60036C23F480730364036C4D
:1012640013F4805F03D1036C43F001030364FFF7BD
:101274001FFF08BD026C12F0100F04D1826BD26CF8
:1012840018469047F5E7FFF71BFFF2E730B482B04A
:101294000023019390F83C30012B00F0C08001231F
:1012A40080F83C300B68092B41D90468E2689BB292
:1012B40003EB43031E3B4FF0070C0CFA03F322EA43
:1012C4000303E3600468E2680B8803EB43031E3BFB
:1012D4008D6805FA03F31343E3604B68062B3DD88E
:1012E4000468626B03EB8303053B4FF01F0C0CFA9D
:1012F40003F322EA030363630468626B4B6803EB42
:101304008303053BB1F800C00CFA03F31343636392
:101314000268444B9A4251D00268424B9A425AD0D6
:10132400002380F83C30184602B030BC7047046893
:1013340022699BB203EB43034FF0070C0CFA03F34F
:1013440022EA03032361046822690B8803EB430345
:101354008D6805FA03F313432361BEE70C2B16D8FB
:1013640005682A6B03EB8303233B1F2404FA03F36E
:1013740022EA03032B6305682A6B4B6803EB8303A0
:10138400233B0C8804FA03F313432B63C0E705687B
:10139400EA6A03EB8303413B1F2404FA03F322EAC2
:1013A4000303EB620568EA6A4B6803EB8303413B82
:1013B4000C8804FA03F31343EB62A9E70B68122BBE
:1013C400AAD1194B5A6822F400025A605A6842F4AE
:1013D40080025A60A0E70B68144A934201D0112B93
:1013E4009ED1114B5A6822F480025A605A6842F422
:1013F40000025A600A680D4B9A4291D10C4B1B684B
:101404000C4AA2FB03239B0C03EB83035B000193B5
:10141400019B002B84D0019B013B0193F8E7022040
:1014240082E700BF002001400023014012000010A9
:101434000000002083DE1B4370470000074AD36886
:1014440023F4E0631B041B0C000200F4E06003437C
:1014540043F0BF6343F40033D360704700ED00E012
:1014640000B5194BDB68C3F30223C3F1070CBCF1CD
:10147400040F28BF4FF0040C03F1040EBEF1060F55
:1014840018D9033B4FF0FF3E0EFA0CFC21EA0C0185
:1014940099400EFA03F322EA0303194300280BDBF5
:1014A4000901C9B200F1604000F5614080F8001301
:1014B4005DF804FB0023E5E700F00F000901C9B261
:1014C400024B1954F4E700BF00ED00E014ED00E016
:1014D400002807DB00F01F02400901239340024A61
:1014E40042F82030704700BF00E100E00138B0F15D
:1014F400807F0BD24FF0E0235861054AF02182F837
:1015040023100020986107221A6170470120704758
:1015140000ED00E070B110B50446037933B1022345
:101524002371002020610123237110BD4371FFF753
:10153400DFFAF4E70120704770B504460D46114602
:10154400049A4079012866D001206071022020713C
:10155400002D34D1A068314EC663A068304E0664B5
:10156400A068304EC6642668306840F4805030600D
:10157400042A1ED0082A1FD0C2B12A46002D3CD10D
:101584002668306840F400503060A06800F0D6F956
:1015940000236371002839D12268136805F010050F
:1015A400012101FA05F51D43156070BD226808325A
:1015B400E4E722680C32E1E722681032DEE7E068F3
:1015C400194EC663E068194E0664E068184EC66496
:1015D4002668306840F080503060042A07D0082A1A
:1015E40008D00AB10022C9E722681432C6E722688B
:1015F4001832C3E722681C32C0E72668306840F01E
:1016040000503060E06800F099F9C1E7236943F0C5
:1016140004032361C9E70220C7E700BF3B160008A3
:101624004D16000859160008411700085117000804
:101634005B170008704710B5846B2046FFF7FAFF6C
:101644000123237110BD704708B5806BFFF7FBFFC2
:1016540008BD704710B5846B236943F0040323610C
:101664002046FFF7F6FF0123237110BD704710B524
:10167400044603681A6812F4005F03D05A6B12F42C
:10168400005F09D123681A6812F0005F03D05A6B17
:1016940012F0005F11D110BD04220271026942F000
:1016A400010202614FF400525A630268136823F482
:1016B40080531360FFF7DAFFE4E704222271226902
:1016C40042F0020222614FF000525A63226813680A
:1016D40023F080531360204600F02FF8DBE74379B2
:1016E400012B25D010B54FF0010E80F805E0022340
:1016F40003710468236802F0100240F6FE7C0CFAC1
:1017040002FC23EA0C0C0B6849680B43934043EA40
:101714000C03236004682368C02101FA02F223EA5F
:101724000202226080F804E000234371184610BDD1
:1017340002207047704770477047704710B5846B3C
:101744002046FFF7F7FF0123237110BD08B5806B16
:10175400FFF7F1FF08BD10B5846B236943F0040360
:1017640023612046FFF7E8FF0123237110BD30B445
:1017740005682C6824F480242C6004686360836802
:10178400402B05D0036899600368DA6030BC704769
:1017940003689A600368D960F8E7000010B403682E
:1017A400D9B210390C4AA2FB014212090B4CA25CBB
:1017B400C2655F2909D923F47F7323F0030304333B
:1017C4008365806D5DF8044B704723F47F7323F0C9
:1017D40003038365F5E700BFABAAAAAAA42F0008F8
:1017E400836A826992B9012B0AD0022B02D00BB111
:1017F40000207047C36A13F0807F28D1002070470F
:10180400C36AB3F1C07F24D000207047B2F5005FF3
:1018140009D0022B25D9032B25D1C36A13F0807F6D
:1018240023D100207047032B03D8DFE803F014040E
:10183400140A00207047C36A13F0807F0DD1002082
:101844007047C36AB3F1C07F09D0002070470120FC
:101854007047012070470120704701207047012024
:101864007047012070470020704701207047000036
:1018740070B50446FFF782FA002C5BD005460223BC
:1018840084F83530002384F834302268136823F058
:101894000103136023681A6812F0010F0AD0FFF7DE
:1018A4006DFA431B052BF5D920236365032084F8C7
:1018B400350070BD1A68204810406168A2680A4368
:1018C400E1680A4321690A4361690A43A1690A4339
:1018D400E1690A43216A0A430243616A04291ED06A
:1018E4001A602668756925F00705636A1D43042B91
:1018F40007D1A36A1D43E36A1BB12046FFF770FFBB
:1019040090B975612046FFF749FFE26D3F2393408C
:10191400836000206065012384F83530C9E7E16AFB
:10192400206B01430A43DBE740236365012084F80D
:101934003500BEE70120BCE73F8010F038B504460F
:10194400856D90F8340001282BD0012084F83400F0
:1019540094F83500C0B2012804D0002384F8343050
:10196400022038BD022084F835000020606520463E
:10197400FFF7FDFEE26D3F239340AB6022681368DE
:1019840043F016031360236C23B12268136843F0F9
:10199400080313602268136843F0010313600020F6
:1019A400DFE70220DDE70000F0B583B00446002342
:1019B4000193724B1D68724BA3FB0535AD0A876D0D
:1019C4003E68C26D08239340334210D003681A68FE
:1019D40012F0040F0BD01A6822F004021A60C26DD0
:1019E40008239340BB60436D43F001034365E26DFC
:1019F40001239340334209D02268526912F0800FC8
:101A040004D0BB60636D43F002036365E26D04239D
:101A14009340334209D02268126812F0020F04D0B6
:101A2400BB60636D43F004036365E26D1023934070
:101A3400334224D02268126812F0080F1FD0BB6012
:101A440023681A6812F4802F0DD01B6813F4002F3A
:101A540004D1236C9BB12046984710E0A36C73B16A
:101A6400204698470BE01A6812F4807F03D11A6865
:101A740022F008021A60236C0BB120469847E26DED
:101A840020239340334255D02268126812F0100F7D
:101A940050D0BB6094F83530DBB2052B0ED02368F0
:101AA4001A6812F4802F33D01B6813F4002F2AD144
:101AB400636C002B3ED0204698473BE022681368B5
:101AC40023F0160313602268536923F080035361E3
:101AD400236CA3B12268136823F008031360E26D3A
:101AE4003F239340BB60012384F83530002384F8FE
:101AF4003430236D002B3FD0204698473CE0A36C44
:101B0400002BE7D1EBE7E36BA3B12046984711E044
:101B14001A6812F4807F09D11A6822F010021A6040
:101B2400012384F83530002384F83430E36B0BB19F
:101B340020469847636DFBB1636D13F0010F17D016
:101B4400052384F835302268136823F001031360F9
:101B5400019B01330193AB4204D823681B6813F043
:101B6400010FF5D1012384F83530002384F8343093
:101B7400E36C0BB12046984703B0F0BD0000002091
:101B8400B5814E1B00230F2B00F2DE8070B582B0AE
:101B940060E085685E000324B44025EA0405CC684F
:101BA400B4402C438460456825EA02054C68C4F3BC
:101BB40000129A402A4342605AE0DC08083450F884
:101BC400246003F0070295000F22AA4026EA020EC1
:101BD4000A69AA4042EA0E0240F824205CE0062288
:101BE40000E0002202FA0EF22A430234574D45F86F
:101BF4002420574A94686FEA0C0224EA0C054E68C4
:101C040016F4801F01D04CEA0405514CA560E46829
:101C140002EA04054E6816F4001F01D04CEA0405DC
:101C24004B4CE560646802EA04054E6816F4003F14
:101C340001D04CEA0405464C6560246822404D6896
:101C440015F4803F01D04CEA0402414C2260013378
:101C54000F2B77D801229A400C6804EA020C32EA6E
:101C64000404F4D14C6804F00304013C012C90D921
:101C74004A6802F00302032A09D0C4685D00032203
:101C8400AA4024EA02048A68AA402243C2604A683D
:101C940002F00302022A90D004684FEA430E0322A2
:101CA40002FA0EF224EA02044A6802F0030202FA7B
:101CB4000EF2224302604A6812F4403FC7D0002269
:101CC4000192244A546C44F480445464526C02F4E7
:101CD40080420192019A9C08A51C1C4A52F8255086
:101CE40003F003024FEA820E0F2202FA0EF225EAF3
:101CF4000205194A90423FF474AF02F580629042A3
:101D040016D002F58062904214D002F580629042AF
:101D140012D002F58062904210D002F580629042A7
:101D24000ED002F5806290423FF459AF072259E782
:101D3400012257E7022255E7032253E7042251E721
:101D440005224FE702B070BD704700BF0038014064
:101D5400003C014000380240000002400AB18161A9
:101D64007047090481617047436901EA030221EA6B
:101D7400030141EA0241816170470000002800F03C
:101D84009B8070B50D4604464F4B1B6803F00F0350
:101D94008B4208D2CBB24C4A1370136803F00F0382
:101DA4008B4240F08B80236813F0020F17D013F09E
:101DB400040F04D0454A936843F4E05393602368C6
:101DC40013F0080F04D0414A936843F460439360CE
:101DD4003E4A936823F0F003A1680B4393602368A1
:101DE40013F0010F32D06368012B21D09A1E012A0F
:101DF40025D9364A126812F0020F61D033498A6835
:101E040022F0030213438B60FEF7B8FF06462F4B04
:101E14009B6803F00C036268B3EB820F16D0FEF7E5
:101E2400ADFF801B41F288339842F0D9032042E091
:101E3400264A126812F4003FE0D101203BE0234A15
:101E4400126812F0007FD9D1012034E01E4B1B68C8
:101E540003F00F03AB4207D9EAB21B4B1A701B689D
:101E640003F00F03AB422DD1236813F0040F06D007
:101E7400164A936823F4E053E1680B4393602368A4
:101E840013F0080F07D0114A936823F460432169C3
:101E940043EAC103936000F047F80C4B9B68C3F31B
:101EA40003130B4AD35CD8400A4B18600A4B1868DA
:101EB400FEF718FF002070BD012070470120FAE7EB
:101EC4000120F8E70120F6E7003C02400038024018
:101ED4008C2F00080000002008000020014B186827
:101EE400704700BF0000002008B5FFF7F7FF044B60
:101EF4009B68C3F38223034AD35CD84008BD00BF68
:101F0400003802409C2F000808B5FFF7E7FF044B98
:101F14009B68C3F34233034AD35CD84008BD00BF77
:101F2400003802409C2F000808B55C4B9B6803F006
:101F34000C03082B07D00C2B5BD0042B01D0584882
:101F440008BD5848FCE7554B5A6802F03F025B68ED
:101F540013F4800F2AD0514B5968C1F3881C4FEAFF
:101F64004C11B1EB0C006EEB0E0E4FEA8E1343EAEC
:101F740090638101091A63EB0E03DB0043EA51739A
:101F8400C90011EB0C0C43F10003590200234FEA82
:101F94004C2041EADC51FEF7CDF9404B5B68C3F3BA
:101FA400014301335B00B0FBF3F0C9E73B4B5968D5
:101FB400C1F3881C4FEA4C11B1EB0C006EEB0E0E12
:101FC4004FEA8E1343EA90638101091A63EB0E030F
:101FD400DB0043EA5173C90011EB0C0C43F100031D
:101FE400990200234FEA8C2041EA9C51FEF7A2F9A2
:101FF400D3E72A4B5A6802F03F025B6813F4800F60
:1020040028D0264B5968C1F3881C4FEA4C11B1EB18
:102014000C006EEB0E0E4FEA8E1343EA90638101BF
:10202400091A63EB0E03DB0043EA5173C90011EB99
:102034000C0C43F10003590200234FEA4C2041EAFF
:10204400DC51FEF777F9154B5B68C3F30273B0FB01
:10205400F3F075E7114B5968C1F3881C4FEA4C1132
:10206400B1EB0C006EEB0E0E4FEA8E1343EA906355
:102074008101091A63EB0E03DB0043EA5173C900C3
:1020840011EB0C0C43F10003990200234FEA8C205E
:1020940041EA9C51FEF74EF9D5E700BF00380240F3
:1020A4000024F40000127A00002800F0018270B5C8
:1020B40082B00446036813F0010F41D0994B9B682A
:1020C40003F00C03042B32D0964B9B6803F00C03F3
:1020D400082B27D0934B9B6803F00C030C2B59D08F
:1020E4006368B3F5803F5BD0B3F5A02F5ED08D4B12
:1020F4001A6822F480321A601A6822F480221A6064
:102104006368002B5CD0FEF739FE0546854B1B68DF
:1021140013F4003F14D1FEF731FE401B6428F5D9B7
:102124000320CCE17F4B5B6813F4800FD2D07D4B4E
:102134001B6813F4003F03D06368002B00F0BA81DE
:10214400236813F0020F60D0764B9B6813F00C0FDA
:102154004AD0744B9B6803F00C03082B3FD0714B9F
:102164009B6803F00C030C2B69D0E368002B75D03B
:102174006D4B01221A60FEF701FE0546694B1B6890
:1021840013F0020F61D1FEF7F9FD401B0228F5D9C7
:10219400032094E1634B5B6813F4800FA0D0C6E77F
:1021A400604A136843F480331360A9E75D4B1A68EF
:1021B40042F480221A601A6842F480321A609FE75F
:1021C400FEF7DCFD0546574B1B6813F4003FB7D000
:1021D400FEF7D4FD401B6428F5D903206FE1514B71
:1021E4005B6813F4800FBAD14E4B1B6813F0020FD7
:1021F40003D0E368012B40F05F814A4A136823F05F
:10220400F803216943EAC1031360236813F0080F3C
:1022140049D06369002B33D0434B0122C3F8802E8D
:10222400FEF7ACFD05463F4B5B6F13F0020F3AD14E
:10223400FEF7A4FD401B0228F5D903203FE1394BEA
:102244005B6813F4800F90D1CEE7364A136823F00D
:10225400F803216943EAC1031360D6E7324B002235
:102264001A60FEF78BFD05462E4B1B6813F0020F18
:10227400CBD0FEF783FD401B0228F5D903201EE1D5
:10228400294B0022C3F8802EFEF778FD0546254B26
:102294005B6F13F0020F06D0FEF770FD401B02289F
:1022A400F5D903200BE1236813F0040F76D01D4BFE
:1022B4001B6C13F0805F33D100230193194B1A6C0C
:1022C40042F080521A641B6C03F080530193019B0B
:1022D4000125164B1B6813F4807F29D0A368012BBA
:1022E4003AD0052B3ED00F4B1A6F22F001021A6729
:1022F4001A6F22F004021A67A368002B3CD0FEF781
:102304003DFD0646074B1B6F13F0020F45D1FEF748
:1023140035FD801B41F288339842F3D90320CEE087
:102324000025D6E700380240000047420070004014
:102334006B4A136843F480731360FEF71FFD06466F
:10234400674B1B6813F4807FC8D1FEF717FD801B11
:102354000228F5D90320B2E0624A136F43F0010367
:102364001367C9E75F4B1A6F42F004021A671A6FCA
:1023740042F001021A67BFE7FEF700FD0646594B1B
:102384001B6F13F0020F08D0FEF7F8FC801B41F21C
:1023940088339842F3D9032091E0EDB9A369002B67
:1023A40000F08C804F4A926802F00C02082A54D044
:1023B400022B17D04C4B00221A66FEF7DFFC0446B2
:1023C400484B1B6813F0007F45D0FEF7D7FC001B79
:1023D4000228F5D9032072E0424A136C23F080539B
:1023E4001364DBE7404B00221A66FEF7C7FC054680
:1023F4003C4B1B6813F0007F06D0FEF7BFFC401B6C
:102404000228F5D903205AE0E369226A1343626A79
:1024140043EA8213A26A5208013A43EA0243E26A97
:1024240043EA0263226B43EA02732E4A53602E4B43
:1024340001221A66FEF7A2FC04462A4B1B6813F01D
:10244400007F06D1FEF79AFC001B0228F5D9032071
:1024540035E0002033E0002031E0012B31D0214B66
:102464005B6803F48001E26991422CD103F03F02DE
:10247400216A8A4229D1616A47F6C0721A40B2EBD6
:10248400811F24D103F44031A26A5208013AB1EB0E
:10249400024F1ED103F07062E16AB2EB016F1AD1F0
:1024A40003F0E043226BB3EB027F16D1002006E079
:1024B40001207047012002E0012000E0002002B06A
:1024C40070BD0120FBE70120F9E70120F7E70120B7
:1024D400F5E70120F3E70120F1E70120EFE700BF72
:1024E40000700040003802400000474230B4036AE4
:1024F40023F001030362036A4268846924F07304CD
:102504000D682C4323F0020C8B6843EA0C03104D36
:10251400A84203D005F58065A84205D123F008033D
:10252400CD682B4323F00403094DA84203D005F5DD
:102534008065A84205D122F440724D692A438D6911
:102544002A43426084614A684263036230BC704734
:102554000000014030B4036A23F480730362036A09
:102564004268C46924F0730C0C6844EA0C0523F433
:1025740000738C6843EA0423114CA04203D004F591
:102584008064A04206D123F40063CC6843EA0423A8
:1025940023F480630A4CA04203D004F58064A04273
:1025A40007D122F440524C6942EA04128C6942EA8F
:1025B40004124260C5614A68C263036230BC70475A
:1025C4000000014030B4036A23F480530362036AB9
:1025D4004468C26922F4E6420D6842EA052223F403
:1025E40000538D6843EA0533094DA84203D005F52D
:1025F4008065A84204D124F480444D6944EA8514DA
:102604004460C2614A680264036230BC704700BF20
:102614000000014010B4036A046A24F00104046257
:10262400846924F0F00C4CEA021223F00A030B43F1
:10263400826103625DF8044B704710B4046A24F0AD
:10264400100404628469036A24F4704C4CEA023274
:1026540023F0A00343EA0113826103625DF8044B93
:102664007047836823F070030B4343F007038360D0
:102674007047000090F83D30DBB2012B32D10223C9
:1026840080F83D300368194A934220D0B3F1804F5B
:102694001DD0A2F57C42934219D002F58062934288
:1026A40015D002F58062934211D002F5784293422C
:1026B4000DD002F57052934209D0A2F594329342A0
:1026C40005D01A6842F001021A60002070479A6827
:1026D40002F00702062A07D01A6842F001021A60C3
:1026E400002070470120704700207047000001401F
:1026F4007047704770477047704710B504460368C9
:102704001A6912F0020F11D0DA6812F0020F0DD01C
:102714006FF002021A610123037703689B6913F0C7
:10272400030F70D0FFF7E6FF0023237723681A69AD
:1027340012F0040F12D0DA6812F0040F0ED06FF00A
:1027440004021A610223237723689B6913F4407FF0
:102754005FD02046FFF7CEFF0023237723681A6952
:1027640012F0080F12D0DA6812F0080F0ED06FF0D2
:1027740008021A61042323772368DB6913F0030F2B
:102784004ED02046FFF7B6FF0023237723681A694B
:1027940012F0100F12D0DA6812F0100F0ED06FF092
:1027A40010021A61082323772368DB6913F4407F3E
:1027B4003DD02046FFF79EFF0023237723681A6944
:1027C40012F0010F03D0DA6812F0010F36D123683A
:1027D4001A6912F0800F03D0DA6812F0800F34D136
:1027E40023681A6912F0400F03D0DA6812F0400F20
:1027F40032D123681A6912F0200F03D0DA6812F07C
:10280400200F30D110BDFFF774FF2046FFF773FF90
:102814008AE72046FFF76DFF2046FFF76CFF9BE732
:102824002046FFF766FF2046FFF765FFACE720462A
:10283400FFF75FFF2046FFF75EFFBDE76FF0010281
:102844001A612046FFF754FFC1E76FF080021A6156
:10285400204600F0AAFAC3E76FF040021A6120464E
:10286400FFF74AFFC5E76FF020021A61204600F027
:102874009BFAC7E70368304A904212D0B0F1804F08
:102884000FD0A2F57C4290420BD002F580629042B8
:1028940007D002F58062904203D002F5784290425C
:1028A40003D123F070034A681343234A90422AD089
:1028B400B0F1804F27D0A2F57C42904223D002F59C
:1028C400806290421FD002F5806290421BD002F5D4
:1028D4007842904217D002F57052904213D002F51C
:1028E400806290420FD002F5806290420BD0A2F534
:1028F4009832904207D002F58062904203D002F5EC
:102904008062904203D123F44073CA68134323F0D6
:1029140080034A69134303608B68C3620B68836254
:10292400054B984203D003F58063984201D10B69AB
:1029340003630123436170470000014040B310B5B5
:10294400044690F83D30F3B1022384F83D3021462B
:1029540051F8040BFFF78EFF012384F8463084F806
:102964003E3084F83F3084F8403084F8413084F8B5
:10297400423084F8433084F8443084F8453084F895
:102984003D30002010BD80F83C30FEF711F9DBE744
:102994000120704730B4036A23F010030362036A12
:1029A4004468826922F4E6420D6842EA052223F073
:1029B40020038D6843EA0513114DA84203D005F5A1
:1029C4008065A84206D123F08003CD6843EA05134D
:1029D40023F040030A4DA84203D005F58065A842C0
:1029E40007D124F440644D6944EA85048D6944EABE
:1029F4008504446082614A688263036230BC704724
:102A04000000014038B590F83C30012B66D00446F4
:102A14000D46012380F83C300C2A5AD8DFE802F036
:102A2400075959591B595959305959594400006883
:102A3400FFF75CFD2268936943F008039361226801
:102A4400936923F0040393612268936929690B4312
:102A5400936100203EE00068FFF79CFF22689369C1
:102A640043F4006393612268936923F48063936160
:102A740022689369296943EA01239361002029E0CC
:102A84000068FFF767FD2268D36943F00803D36148
:102A94002268D36923F00403D3612268D3692969C6
:102AA4000B43D361002015E00068FFF78BFD22681B
:102AB400D36943F40063D3612268D36923F4806348
:102AC400D3612268D369296943EA0123D3610020D1
:102AD40000E00120002384F83C3038BD0220FCE7EC
:102AE40010B4846824F47F4C42EA03220A4342EA85
:102AF4000C0282605DF8044B704790F83C30012B67
:102B040078D010B50446012380F83C30022380F8C5
:102B14003D300268936823F47F4323F07703936086
:102B24000B68602B4CD029D8402B54D00CD9502B97
:102B340022D1CA6849680068FFF76CFD50212068FB
:102B4400FFF78FFD002005E0202B0DD009D9302B95
:102B54000AD00120012384F83D30002384F83C305E
:102B640010BD0BB1102B05D119462068FFF779FD74
:102B74000020EFE70120EDE70120EBE7B3F5805FEC
:102B840034D0B3F5005F0CD1CB684A68896800681B
:102B9400FFF7A6FF2268936843F480439360002004
:102BA400D8E7702B24D1CB684A6889680068FFF79E
:102BB40097FF2268936843F0770393600020C9E786
:102BC400CA6849680068FFF738FD60212068FFF78C
:102BD40048FD0020BEE7CA6849680068FFF71AFD8F
:102BE40040212068FFF73DFD0020B3E70020B1E756
:102BF4000120AFE70220704701F01F01012303FA0F
:102C040001FC036A23EA0C030362036A02FA01F17A
:102C14000B4303627047000010B5044608460029C0
:102C240042D194F83E30DBB2013B18BF0123002BA4
:102C34006ED1002851D1022384F83E30012201468E
:102C44002068FFF7D9FF2368334A934203D002F583
:102C54008062934203D15A6C42F400425A6423685E
:102C64002D4A934249D0B3F1804F46D0A2F57C421D
:102C7400934242D002F5806293423ED002F58062D4
:102C840093423AD002F57842934236D002F570521C
:102C9400934232D0A2F5943293422ED01A6842F075
:102CA40001021A60002032E0042908D008290DD05E
:102CB40094F84130DBB2013B18BF0123B7E794F825
:102CC4003F30DBB2013B18BF0123B0E794F840303A
:102CD400DBB2013B18BF0123A9E7042805D008286B
:102CE40007D0022384F84130A8E7022384F83F3058
:102CF400A4E7022384F84030A0E79A6802F00702B0
:102D0400062A07D01A6842F001021A60002010BD9A
:102D14000120FCE70020FAE70000014090F83C3075
:102D2400012B3DD010B4012380F83C30022380F8FD
:102D34003D3003685A689C6822F0700C0A6842EAC5
:102D44000C025A600368174A93421AD0B3F1804FB9
:102D540017D0A2F57C42934213D002F580629342CD
:102D64000FD002F5806293420BD002F57842934271
:102D740007D002F57052934203D0A2F594329342E5
:102D840004D124F080044A6814439C60012380F831
:102D94003D30002380F83C3018465DF8044B704702
:102DA40002207047000001407047704738B5044660
:102DB4000268136923F44053C1680B4313618368A9
:102DC4000269134342691343C2691A430168CB6819
:102DD40023F4164323F00C031343CB6002685369B6
:102DE40023F4407381690B4353610368314A93426E
:102DF40006D002F58062934202D0FFF775F801E035
:102E0400FFF782F8E369B3F5004F29D000210318D6
:102E140049411B1841F10001C90041EA5371DB002B
:102E2400181863684FEA83024FEA937341F1000173
:102E3400FDF780FA204DA5FB00325109642303FB02
:102E440011031B013233A5FB03235B0903F0F002DA
:102E540002EB011203F00F03216813448B6038BDA9
:102E64000023021843EB0301121841F10001C900C9
:102E740041EA5271D200101841F1000162689218BF
:102E84005B41FDF757FA0C4DA5FB00325109642351
:102E940003FB1103DB003233A5FB03235B095A0058
:102EA40002F4F87202EB011203F0070321681344E1
:102EB4008B60D4E7001001401F85EB5158B310B567
:102EC400044690F83D300BB3242384F83D30226847
:102ED400D36823F40053D3602046FFF767FF2268CA
:102EE400136923F4904313612268536923F02A037E
:102EF40053612268D36843F40053D36000202064F4
:102F0400202384F83D3084F83E3010BD80F83C30F6
:102F1400FDF76CFED8E7012070470000DFF834D0DD
:102F24000D480E490E4A002302E0D458C45004331D
:102F3400C4188C42F9D30B4A0B4C002301E01360F4
:102F44000432A242FBD3FDF7C3FEFDF77DF9FDF782
:102F540003FD704700000220000000200C00002048
:102F6400BC2F00080C000020D4A10020FEE70000C4
:102F7400F8B500BFF8BC08BC9E467047F8B500BF62
:082F8400F8BC08BC9E46704732
:102F8C00000000000000000001020304060708090D
:102F9C0000000000010203040006101600061016C3
:082FAC00BCD3FF7F010000000F
:042FB4002D020008E2
:042FB8000502000806
:0C2FBC000024F4000100000010000000E0
:0400000508002F219F
:00000001FF
